{
	"contracts/FundMe.sol": {
		"FundMe": {
			"abi": [
				{
					"inputs": [],
					"stateMutability": "nonpayable",
					"type": "constructor"
				},
				{
					"inputs": [],
					"name": "MustOwner",
					"type": "error"
				},
				{
					"stateMutability": "payable",
					"type": "fallback"
				},
				{
					"inputs": [],
					"name": "fund",
					"outputs": [],
					"stateMutability": "payable",
					"type": "function"
				},
				{
					"inputs": [],
					"name": "withdraw",
					"outputs": [],
					"stateMutability": "nonpayable",
					"type": "function"
				},
				{
					"stateMutability": "payable",
					"type": "receive"
				}
			],
			"devdoc": {
				"kind": "dev",
				"methods": {},
				"version": 1
			},
			"evm": {
				"assembly": "    /* \"contracts/FundMe.sol\":139:1414  contract FundMe{... */\n  mstore(0x40, 0xa0)\n    /* \"contracts/FundMe.sol\":362:412  constructor(){... */\n  callvalue\n  dup1\n  iszero\n  tag_1\n  jumpi\n  0x00\n  dup1\n  revert\ntag_1:\n  pop\n    /* \"contracts/FundMe.sol\":395:405  msg.sender */\n  caller\n    /* \"contracts/FundMe.sol\":385:405  i_owner = msg.sender */\n  0xffffffffffffffffffffffffffffffffffffffff\n  and\n  0x80\n  dup2\n  0xffffffffffffffffffffffffffffffffffffffff\n  and\n  dup2\n  mstore\n  pop\n  pop\n    /* \"contracts/FundMe.sol\":139:1414  contract FundMe{... */\n  mload(0x80)\n  codecopy(0x00, dataOffset(sub_0), dataSize(sub_0))\n  0x00\n  assignImmutable(\"0xcdbc23227c72e0a3f4683bdbccfcbed38047ca1a70d48b78c210dc5393029019\")\n  return(0x00, dataSize(sub_0))\nstop\n\nsub_0: assembly {\n        /* \"contracts/FundMe.sol\":139:1414  contract FundMe{... */\n      mstore(0x40, 0x80)\n      jumpi(tag_1, lt(calldatasize, 0x04))\n      shr(0xe0, calldataload(0x00))\n      dup1\n      0x3ccfd60b\n      eq\n      tag_3\n      jumpi\n      dup1\n      0xb60d4288\n      eq\n      tag_4\n      jumpi\n      jump(tag_2)\n    tag_1:\n      jumpi(tag_2, calldatasize)\n        /* \"contracts/FundMe.sol\":1340:1346  fund() */\n      tag_7\n        /* \"contracts/FundMe.sol\":1340:1344  fund */\n      tag_8\n        /* \"contracts/FundMe.sol\":1340:1346  fund() */\n      jump\t// in\n    tag_7:\n        /* \"contracts/FundMe.sol\":139:1414  contract FundMe{... */\n      stop\n    tag_2:\n        /* \"contracts/FundMe.sol\":1398:1404  fund() */\n      tag_11\n        /* \"contracts/FundMe.sol\":1398:1402  fund */\n      tag_8\n        /* \"contracts/FundMe.sol\":1398:1404  fund() */\n      jump\t// in\n    tag_11:\n        /* \"contracts/FundMe.sol\":139:1414  contract FundMe{... */\n      stop\n        /* \"contracts/FundMe.sol\":729:1111  function withdraw() public onlyOwner{... */\n    tag_3:\n      callvalue\n      dup1\n      iszero\n      tag_12\n      jumpi\n      0x00\n      dup1\n      revert\n    tag_12:\n      pop\n      tag_13\n      tag_14\n      jump\t// in\n    tag_13:\n      stop\n        /* \"contracts/FundMe.sol\":418:722  function fund() public payable {... */\n    tag_4:\n      tag_15\n      tag_8\n      jump\t// in\n    tag_15:\n      stop\n    tag_8:\n        /* \"contracts/FundMe.sol\":239:251  5 * 10 ** 18 */\n      0x4563918244f40000\n        /* \"contracts/FundMe.sol\":566:595  msg.value.getConversionRate() */\n      tag_17\n        /* \"contracts/FundMe.sol\":566:575  msg.value */\n      callvalue\n        /* \"contracts/FundMe.sol\":566:593  msg.value.getConversionRate */\n      tag_18\n        /* \"contracts/FundMe.sol\":566:595  msg.value.getConversionRate() */\n      jump\t// in\n    tag_17:\n        /* \"contracts/FundMe.sol\":566:608  msg.value.getConversionRate() > MIN_IN_USD */\n      gt\n        /* \"contracts/FundMe.sol\":558:631  require(msg.value.getConversionRate() > MIN_IN_USD, \"at least 5 dollars\") */\n      tag_19\n      jumpi\n      mload(0x40)\n      0x08c379a000000000000000000000000000000000000000000000000000000000\n      dup2\n      mstore\n      0x04\n      add\n      tag_20\n      swap1\n      tag_21\n      jump\t// in\n    tag_20:\n      mload(0x40)\n      dup1\n      swap2\n      sub\n      swap1\n      revert\n    tag_19:\n        /* \"contracts/FundMe.sol\":641:648  funders */\n      0x00\n        /* \"contracts/FundMe.sol\":654:664  msg.sender */\n      caller\n        /* \"contracts/FundMe.sol\":641:665  funders.push(msg.sender) */\n      swap1\n      dup1\n      0x01\n      dup2\n      sload\n      add\n      dup1\n      dup3\n      sstore\n      dup1\n      swap2\n      pop\n      pop\n      0x01\n      swap1\n      sub\n      swap1\n      0x00\n      mstore\n      keccak256(0x00, 0x20)\n      add\n      0x00\n      swap1\n      swap2\n      swap1\n      swap2\n      swap1\n      swap2\n      0x0100\n      exp\n      dup2\n      sload\n      dup2\n      0xffffffffffffffffffffffffffffffffffffffff\n      mul\n      not\n      and\n      swap1\n      dup4\n      0xffffffffffffffffffffffffffffffffffffffff\n      and\n      mul\n      or\n      swap1\n      sstore\n      pop\n        /* \"contracts/FundMe.sol\":706:715  msg.value */\n      callvalue\n        /* \"contracts/FundMe.sol\":675:690  addressToAmount */\n      0x01\n        /* \"contracts/FundMe.sol\":675:702  addressToAmount[msg.sender] */\n      0x00\n        /* \"contracts/FundMe.sol\":691:701  msg.sender */\n      caller\n        /* \"contracts/FundMe.sol\":675:702  addressToAmount[msg.sender] */\n      0xffffffffffffffffffffffffffffffffffffffff\n      and\n      0xffffffffffffffffffffffffffffffffffffffff\n      and\n      dup2\n      mstore\n      0x20\n      add\n      swap1\n      dup2\n      mstore\n      0x20\n      add\n      0x00\n      keccak256\n      0x00\n        /* \"contracts/FundMe.sol\":675:715  addressToAmount[msg.sender] += msg.value */\n      dup3\n      dup3\n      sload\n      tag_23\n      swap2\n      swap1\n      tag_24\n      jump\t// in\n    tag_23:\n      swap3\n      pop\n      pop\n      dup2\n      swap1\n      sstore\n      pop\n        /* \"contracts/FundMe.sol\":418:722  function fund() public payable {... */\n      jump\t// out\n        /* \"contracts/FundMe.sol\":729:1111  function withdraw() public onlyOwner{... */\n    tag_14:\n        /* \"contracts/FundMe.sol\":1226:1236  msg.sender */\n      caller\n        /* \"contracts/FundMe.sol\":1215:1236  i_owner != msg.sender */\n      0xffffffffffffffffffffffffffffffffffffffff\n      and\n        /* \"contracts/FundMe.sol\":1215:1222  i_owner */\n      immutable(\"0xcdbc23227c72e0a3f4683bdbccfcbed38047ca1a70d48b78c210dc5393029019\")\n        /* \"contracts/FundMe.sol\":1215:1236  i_owner != msg.sender */\n      0xffffffffffffffffffffffffffffffffffffffff\n      and\n      eq\n        /* \"contracts/FundMe.sol\":1212:1280  if(i_owner != msg.sender){... */\n      tag_26\n      jumpi\n        /* \"contracts/FundMe.sol\":1258:1269  MustOwner() */\n      mload(0x40)\n      0x0229a90200000000000000000000000000000000000000000000000000000000\n      dup2\n      mstore\n      0x04\n      add\n      mload(0x40)\n      dup1\n      swap2\n      sub\n      swap1\n      revert\n        /* \"contracts/FundMe.sol\":1212:1280  if(i_owner != msg.sender){... */\n    tag_26:\n        /* \"contracts/FundMe.sol\":779:788  uint256 i */\n      0x00\n        /* \"contracts/FundMe.sol\":775:911  for(uint256 i = 0; i < funders.length; i++){... */\n    tag_28:\n        /* \"contracts/FundMe.sol\":798:805  funders */\n      0x00\n        /* \"contracts/FundMe.sol\":798:812  funders.length */\n      dup1\n      sload\n      swap1\n      pop\n        /* \"contracts/FundMe.sol\":794:795  i */\n      dup2\n        /* \"contracts/FundMe.sol\":794:812  i < funders.length */\n      lt\n        /* \"contracts/FundMe.sol\":775:911  for(uint256 i = 0; i < funders.length; i++){... */\n      iszero\n      tag_29\n      jumpi\n        /* \"contracts/FundMe.sol\":832:846  address funder */\n      0x00\n        /* \"contracts/FundMe.sol\":849:856  funders */\n      dup1\n        /* \"contracts/FundMe.sol\":857:858  i */\n      dup3\n        /* \"contracts/FundMe.sol\":849:859  funders[i] */\n      dup2\n      sload\n      dup2\n      lt\n      tag_31\n      jumpi\n      tag_32\n      tag_33\n      jump\t// in\n    tag_32:\n    tag_31:\n      swap1\n      0x00\n      mstore\n      keccak256(0x00, 0x20)\n      add\n      0x00\n      swap1\n      sload\n      swap1\n      0x0100\n      exp\n      swap1\n      div\n      0xffffffffffffffffffffffffffffffffffffffff\n      and\n        /* \"contracts/FundMe.sol\":832:859  address funder = funders[i] */\n      swap1\n      pop\n        /* \"contracts/FundMe.sol\":899:900  0 */\n      0x00\n        /* \"contracts/FundMe.sol\":873:888  addressToAmount */\n      0x01\n        /* \"contracts/FundMe.sol\":873:896  addressToAmount[funder] */\n      0x00\n        /* \"contracts/FundMe.sol\":889:895  funder */\n      dup4\n        /* \"contracts/FundMe.sol\":873:896  addressToAmount[funder] */\n      0xffffffffffffffffffffffffffffffffffffffff\n      and\n      0xffffffffffffffffffffffffffffffffffffffff\n      and\n      dup2\n      mstore\n      0x20\n      add\n      swap1\n      dup2\n      mstore\n      0x20\n      add\n      0x00\n      keccak256\n        /* \"contracts/FundMe.sol\":873:900  addressToAmount[funder] = 0 */\n      dup2\n      swap1\n      sstore\n      pop\n        /* \"contracts/FundMe.sol\":818:911  {... */\n      pop\n        /* \"contracts/FundMe.sol\":814:817  i++ */\n      dup1\n      dup1\n      0x01\n      add\n      swap2\n      pop\n      pop\n        /* \"contracts/FundMe.sol\":775:911  for(uint256 i = 0; i < funders.length; i++){... */\n      jump(tag_28)\n    tag_29:\n      pop\n        /* \"contracts/FundMe.sol\":945:946  0 */\n      0x00\n        /* \"contracts/FundMe.sol\":931:947  new address[](0) */\n      0xffffffffffffffff\n      dup2\n      gt\n      iszero\n      tag_35\n      jumpi\n      tag_36\n      tag_37\n      jump\t// in\n    tag_36:\n    tag_35:\n      mload(0x40)\n      swap1\n      dup1\n      dup3\n      mstore\n      dup1\n      0x20\n      mul\n      0x20\n      add\n      dup3\n      add\n      0x40\n      mstore\n      dup1\n      iszero\n      tag_38\n      jumpi\n      dup2\n      0x20\n      add\n      0x20\n      dup3\n      mul\n      dup1\n      calldatasize\n      dup4\n      calldatacopy\n      dup1\n      dup3\n      add\n      swap2\n      pop\n      pop\n      swap1\n      pop\n    tag_38:\n      pop\n        /* \"contracts/FundMe.sol\":921:928  funders */\n      0x00\n        /* \"contracts/FundMe.sol\":921:947  funders = new address[](0) */\n      swap1\n      dup1\n      mload\n      swap1\n      0x20\n      add\n      swap1\n      tag_39\n      swap3\n      swap2\n      swap1\n      tag_40\n      jump\t// in\n    tag_39:\n      pop\n        /* \"contracts/FundMe.sol\":958:970  bool success */\n      0x00\n        /* \"contracts/FundMe.sol\":1008:1018  msg.sender */\n      caller\n        /* \"contracts/FundMe.sol\":999:1024  payable (msg.sender).call */\n      0xffffffffffffffffffffffffffffffffffffffff\n      and\n        /* \"contracts/FundMe.sol\":1032:1053  address(this).balance */\n      selfbalance\n        /* \"contracts/FundMe.sol\":999:1058  payable (msg.sender).call{value: address(this).balance}(\"\") */\n      mload(0x40)\n      tag_41\n      swap1\n      tag_42\n      jump\t// in\n    tag_41:\n      0x00\n      mload(0x40)\n      dup1\n      dup4\n      sub\n      dup2\n      dup6\n      dup8\n      gas\n      call\n      swap3\n      pop\n      pop\n      pop\n      returndatasize\n      dup1\n      0x00\n      dup2\n      eq\n      tag_45\n      jumpi\n      mload(0x40)\n      swap2\n      pop\n      and(add(returndatasize, 0x3f), not(0x1f))\n      dup3\n      add\n      0x40\n      mstore\n      returndatasize\n      dup3\n      mstore\n      returndatasize\n      0x00\n      0x20\n      dup5\n      add\n      returndatacopy\n      jump(tag_44)\n    tag_45:\n      0x60\n      swap2\n      pop\n    tag_44:\n      pop\n        /* \"contracts/FundMe.sol\":957:1058  (bool success, /* bytes memory data */) = payable (msg.sender).call{value: address(this).balance}(\"\") */\n      pop\n      swap1\n      pop\n        /* \"contracts/FundMe.sol\":1076:1083  success */\n      dup1\n        /* \"contracts/FundMe.sol\":1068:1104  require(success, \"Withdraw failed.\") */\n      tag_46\n      jumpi\n      mload(0x40)\n      0x08c379a000000000000000000000000000000000000000000000000000000000\n      dup2\n      mstore\n      0x04\n      add\n      tag_47\n      swap1\n      tag_48\n      jump\t// in\n    tag_47:\n      mload(0x40)\n      dup1\n      swap2\n      sub\n      swap1\n      revert\n    tag_46:\n        /* \"contracts/FundMe.sol\":765:1111  {... */\n      pop\n        /* \"contracts/FundMe.sol\":729:1111  function withdraw() public onlyOwner{... */\n      jump\t// out\n        /* \"contracts/PriceConverter.sol\":548:753  function getConversionRate(uint256 ethAmount) internal view returns(uint256){... */\n    tag_18:\n        /* \"contracts/PriceConverter.sol\":616:623  uint256 */\n      0x00\n        /* \"contracts/PriceConverter.sol\":634:650  uint256 ethPrice */\n      dup1\n        /* \"contracts/PriceConverter.sol\":653:663  getPrice() */\n      tag_50\n        /* \"contracts/PriceConverter.sol\":653:661  getPrice */\n      tag_51\n        /* \"contracts/PriceConverter.sol\":653:663  getPrice() */\n      jump\t// in\n    tag_50:\n        /* \"contracts/PriceConverter.sol\":634:663  uint256 ethPrice = getPrice() */\n      swap1\n      pop\n        /* \"contracts/PriceConverter.sol\":673:689  uint256 ethInUSD */\n      0x00\n        /* \"contracts/PriceConverter.sol\":717:721  1e18 */\n      0x0de0b6b3a7640000\n        /* \"contracts/PriceConverter.sol\":704:713  ethAmount */\n      dup5\n        /* \"contracts/PriceConverter.sol\":693:701  ethPrice */\n      dup4\n        /* \"contracts/PriceConverter.sol\":693:713  ethPrice * ethAmount */\n      tag_52\n      swap2\n      swap1\n      tag_53\n      jump\t// in\n    tag_52:\n        /* \"contracts/PriceConverter.sol\":692:721  (ethPrice * ethAmount) / 1e18 */\n      tag_54\n      swap2\n      swap1\n      tag_55\n      jump\t// in\n    tag_54:\n        /* \"contracts/PriceConverter.sol\":673:721  uint256 ethInUSD = (ethPrice * ethAmount) / 1e18 */\n      swap1\n      pop\n        /* \"contracts/PriceConverter.sol\":738:746  ethInUSD */\n      dup1\n        /* \"contracts/PriceConverter.sol\":731:746  return ethInUSD */\n      swap3\n      pop\n      pop\n      pop\n        /* \"contracts/PriceConverter.sol\":548:753  function getConversionRate(uint256 ethAmount) internal view returns(uint256){... */\n      swap2\n      swap1\n      pop\n      jump\t// out\n        /* \"contracts/PriceConverter.sol\":237:542  function getPrice() internal view returns(uint256){... */\n    tag_51:\n        /* \"contracts/PriceConverter.sol\":279:286  uint256 */\n      0x00\n        /* \"contracts/PriceConverter.sol\":297:328  AggregatorV3Interface priceFeed */\n      dup1\n        /* \"contracts/PriceConverter.sol\":353:395  0x694AA1769357215DE4FAC081bf1f309aDC325306 */\n      0x694aa1769357215de4fac081bf1f309adc325306\n        /* \"contracts/PriceConverter.sol\":297:396  AggregatorV3Interface priceFeed = AggregatorV3Interface(0x694AA1769357215DE4FAC081bf1f309aDC325306) */\n      swap1\n      pop\n        /* \"contracts/PriceConverter.sol\":409:422  int256 answer */\n      0x00\n        /* \"contracts/PriceConverter.sol\":432:441  priceFeed */\n      dup2\n        /* \"contracts/PriceConverter.sol\":432:457  priceFeed.latestRoundData */\n      0xffffffffffffffffffffffffffffffffffffffff\n      and\n      0xfeaf968c\n        /* \"contracts/PriceConverter.sol\":432:459  priceFeed.latestRoundData() */\n      mload(0x40)\n      dup2\n      0xffffffff\n      and\n      0xe0\n      shl\n      dup2\n      mstore\n      0x04\n      add\n      0xa0\n      mload(0x40)\n      dup1\n      dup4\n      sub\n      dup2\n      dup7\n      gas\n      staticcall\n      iszero\n      dup1\n      iszero\n      tag_58\n      jumpi\n      returndatasize\n      0x00\n      dup1\n      returndatacopy\n      revert(0x00, returndatasize)\n    tag_58:\n      pop\n      pop\n      pop\n      pop\n      mload(0x40)\n      returndatasize\n      not(0x1f)\n      0x1f\n      dup3\n      add\n      and\n      dup3\n      add\n      dup1\n      0x40\n      mstore\n      pop\n      dup2\n      add\n      swap1\n      tag_59\n      swap2\n      swap1\n      tag_60\n      jump\t// in\n    tag_59:\n        /* \"contracts/PriceConverter.sol\":406:459  (, int256 answer, , , ) = priceFeed.latestRoundData() */\n      pop\n      pop\n      pop\n      swap2\n      pop\n      pop\n        /* \"contracts/PriceConverter.sol\":530:534  1e10 */\n      0x02540be400\n        /* \"contracts/PriceConverter.sol\":521:527  answer */\n      dup2\n        /* \"contracts/PriceConverter.sol\":521:534  answer * 1e10 */\n      tag_61\n      swap2\n      swap1\n      tag_62\n      jump\t// in\n    tag_61:\n        /* \"contracts/PriceConverter.sol\":506:535  return uint256(answer * 1e10) */\n      swap3\n      pop\n      pop\n      pop\n        /* \"contracts/PriceConverter.sol\":237:542  function getPrice() internal view returns(uint256){... */\n      swap1\n      jump\t// out\n    tag_40:\n      dup3\n      dup1\n      sload\n      dup3\n      dup3\n      sstore\n      swap1\n      0x00\n      mstore\n      keccak256(0x00, 0x20)\n      swap1\n      dup2\n      add\n      swap3\n      dup3\n      iszero\n      tag_63\n      jumpi\n      swap2\n      0x20\n      mul\n      dup3\n      add\n    tag_64:\n      dup3\n      dup2\n      gt\n      iszero\n      tag_65\n      jumpi\n      dup3\n      mload\n      dup3\n      exp(0x0100, 0x00)\n      dup2\n      sload\n      dup2\n      0xffffffffffffffffffffffffffffffffffffffff\n      mul\n      not\n      and\n      swap1\n      dup4\n      0xffffffffffffffffffffffffffffffffffffffff\n      and\n      mul\n      or\n      swap1\n      sstore\n      pop\n      swap2\n      0x20\n      add\n      swap2\n      swap1\n      0x01\n      add\n      swap1\n      jump(tag_64)\n    tag_65:\n    tag_63:\n      pop\n      swap1\n      pop\n      tag_66\n      swap2\n      swap1\n      tag_67\n      jump\t// in\n    tag_66:\n      pop\n      swap1\n      jump\t// out\n    tag_67:\n    tag_68:\n      dup1\n      dup3\n      gt\n      iszero\n      tag_69\n      jumpi\n      0x00\n      dup2\n      0x00\n      swap1\n      sstore\n      pop\n      0x01\n      add\n      jump(tag_68)\n    tag_69:\n      pop\n      swap1\n      jump\t// out\n        /* \"#utility.yul\":7:176   */\n    tag_70:\n        /* \"#utility.yul\":91:102   */\n      0x00\n        /* \"#utility.yul\":125:131   */\n      dup3\n        /* \"#utility.yul\":120:123   */\n      dup3\n        /* \"#utility.yul\":113:132   */\n      mstore\n        /* \"#utility.yul\":165:169   */\n      0x20\n        /* \"#utility.yul\":160:163   */\n      dup3\n        /* \"#utility.yul\":156:170   */\n      add\n        /* \"#utility.yul\":141:170   */\n      swap1\n      pop\n        /* \"#utility.yul\":7:176   */\n      swap3\n      swap2\n      pop\n      pop\n      jump\t// out\n        /* \"#utility.yul\":182:350   */\n    tag_71:\n        /* \"#utility.yul\":322:342   */\n      0x6174206c65617374203520646f6c6c6172730000000000000000000000000000\n        /* \"#utility.yul\":318:319   */\n      0x00\n        /* \"#utility.yul\":310:316   */\n      dup3\n        /* \"#utility.yul\":306:320   */\n      add\n        /* \"#utility.yul\":299:343   */\n      mstore\n        /* \"#utility.yul\":182:350   */\n      pop\n      jump\t// out\n        /* \"#utility.yul\":356:722   */\n    tag_72:\n        /* \"#utility.yul\":498:501   */\n      0x00\n        /* \"#utility.yul\":519:586   */\n      tag_96\n        /* \"#utility.yul\":583:585   */\n      0x12\n        /* \"#utility.yul\":578:581   */\n      dup4\n        /* \"#utility.yul\":519:586   */\n      tag_70\n      jump\t// in\n    tag_96:\n        /* \"#utility.yul\":512:586   */\n      swap2\n      pop\n        /* \"#utility.yul\":595:688   */\n      tag_97\n        /* \"#utility.yul\":684:687   */\n      dup3\n        /* \"#utility.yul\":595:688   */\n      tag_71\n      jump\t// in\n    tag_97:\n        /* \"#utility.yul\":713:715   */\n      0x20\n        /* \"#utility.yul\":708:711   */\n      dup3\n        /* \"#utility.yul\":704:716   */\n      add\n        /* \"#utility.yul\":697:716   */\n      swap1\n      pop\n        /* \"#utility.yul\":356:722   */\n      swap2\n      swap1\n      pop\n      jump\t// out\n        /* \"#utility.yul\":728:1147   */\n    tag_21:\n        /* \"#utility.yul\":894:898   */\n      0x00\n        /* \"#utility.yul\":932:934   */\n      0x20\n        /* \"#utility.yul\":921:930   */\n      dup3\n        /* \"#utility.yul\":917:935   */\n      add\n        /* \"#utility.yul\":909:935   */\n      swap1\n      pop\n        /* \"#utility.yul\":981:990   */\n      dup2\n        /* \"#utility.yul\":975:979   */\n      dup2\n        /* \"#utility.yul\":971:991   */\n      sub\n        /* \"#utility.yul\":967:968   */\n      0x00\n        /* \"#utility.yul\":956:965   */\n      dup4\n        /* \"#utility.yul\":952:969   */\n      add\n        /* \"#utility.yul\":945:992   */\n      mstore\n        /* \"#utility.yul\":1009:1140   */\n      tag_99\n        /* \"#utility.yul\":1135:1139   */\n      dup2\n        /* \"#utility.yul\":1009:1140   */\n      tag_72\n      jump\t// in\n    tag_99:\n        /* \"#utility.yul\":1001:1140   */\n      swap1\n      pop\n        /* \"#utility.yul\":728:1147   */\n      swap2\n      swap1\n      pop\n      jump\t// out\n        /* \"#utility.yul\":1153:1230   */\n    tag_73:\n        /* \"#utility.yul\":1190:1197   */\n      0x00\n        /* \"#utility.yul\":1219:1224   */\n      dup2\n        /* \"#utility.yul\":1208:1224   */\n      swap1\n      pop\n        /* \"#utility.yul\":1153:1230   */\n      swap2\n      swap1\n      pop\n      jump\t// out\n        /* \"#utility.yul\":1236:1416   */\n    tag_74:\n        /* \"#utility.yul\":1284:1361   */\n      0x4e487b7100000000000000000000000000000000000000000000000000000000\n        /* \"#utility.yul\":1281:1282   */\n      0x00\n        /* \"#utility.yul\":1274:1362   */\n      mstore\n        /* \"#utility.yul\":1381:1385   */\n      0x11\n        /* \"#utility.yul\":1378:1379   */\n      0x04\n        /* \"#utility.yul\":1371:1386   */\n      mstore\n        /* \"#utility.yul\":1405:1409   */\n      0x24\n        /* \"#utility.yul\":1402:1403   */\n      0x00\n        /* \"#utility.yul\":1395:1410   */\n      revert\n        /* \"#utility.yul\":1422:1613   */\n    tag_24:\n        /* \"#utility.yul\":1462:1465   */\n      0x00\n        /* \"#utility.yul\":1481:1501   */\n      tag_103\n        /* \"#utility.yul\":1499:1500   */\n      dup3\n        /* \"#utility.yul\":1481:1501   */\n      tag_73\n      jump\t// in\n    tag_103:\n        /* \"#utility.yul\":1476:1501   */\n      swap2\n      pop\n        /* \"#utility.yul\":1515:1535   */\n      tag_104\n        /* \"#utility.yul\":1533:1534   */\n      dup4\n        /* \"#utility.yul\":1515:1535   */\n      tag_73\n      jump\t// in\n    tag_104:\n        /* \"#utility.yul\":1510:1535   */\n      swap3\n      pop\n        /* \"#utility.yul\":1558:1559   */\n      dup3\n        /* \"#utility.yul\":1555:1556   */\n      dup3\n        /* \"#utility.yul\":1551:1560   */\n      add\n        /* \"#utility.yul\":1544:1560   */\n      swap1\n      pop\n        /* \"#utility.yul\":1579:1582   */\n      dup1\n        /* \"#utility.yul\":1576:1577   */\n      dup3\n        /* \"#utility.yul\":1573:1583   */\n      gt\n        /* \"#utility.yul\":1570:1606   */\n      iszero\n      tag_105\n      jumpi\n        /* \"#utility.yul\":1586:1604   */\n      tag_106\n      tag_74\n      jump\t// in\n    tag_106:\n        /* \"#utility.yul\":1570:1606   */\n    tag_105:\n        /* \"#utility.yul\":1422:1613   */\n      swap3\n      swap2\n      pop\n      pop\n      jump\t// out\n        /* \"#utility.yul\":1619:1799   */\n    tag_33:\n        /* \"#utility.yul\":1667:1744   */\n      0x4e487b7100000000000000000000000000000000000000000000000000000000\n        /* \"#utility.yul\":1664:1665   */\n      0x00\n        /* \"#utility.yul\":1657:1745   */\n      mstore\n        /* \"#utility.yul\":1764:1768   */\n      0x32\n        /* \"#utility.yul\":1761:1762   */\n      0x04\n        /* \"#utility.yul\":1754:1769   */\n      mstore\n        /* \"#utility.yul\":1788:1792   */\n      0x24\n        /* \"#utility.yul\":1785:1786   */\n      0x00\n        /* \"#utility.yul\":1778:1793   */\n      revert\n        /* \"#utility.yul\":1805:1985   */\n    tag_37:\n        /* \"#utility.yul\":1853:1930   */\n      0x4e487b7100000000000000000000000000000000000000000000000000000000\n        /* \"#utility.yul\":1850:1851   */\n      0x00\n        /* \"#utility.yul\":1843:1931   */\n      mstore\n        /* \"#utility.yul\":1950:1954   */\n      0x41\n        /* \"#utility.yul\":1947:1948   */\n      0x04\n        /* \"#utility.yul\":1940:1955   */\n      mstore\n        /* \"#utility.yul\":1974:1978   */\n      0x24\n        /* \"#utility.yul\":1971:1972   */\n      0x00\n        /* \"#utility.yul\":1964:1979   */\n      revert\n        /* \"#utility.yul\":1991:2138   */\n    tag_75:\n        /* \"#utility.yul\":2092:2103   */\n      0x00\n        /* \"#utility.yul\":2129:2132   */\n      dup2\n        /* \"#utility.yul\":2114:2132   */\n      swap1\n      pop\n        /* \"#utility.yul\":1991:2138   */\n      swap3\n      swap2\n      pop\n      pop\n      jump\t// out\n        /* \"#utility.yul\":2144:2258   */\n    tag_76:\n      pop\n      jump\t// out\n        /* \"#utility.yul\":2264:2662   */\n    tag_77:\n        /* \"#utility.yul\":2423:2426   */\n      0x00\n        /* \"#utility.yul\":2444:2527   */\n      tag_112\n        /* \"#utility.yul\":2525:2526   */\n      0x00\n        /* \"#utility.yul\":2520:2523   */\n      dup4\n        /* \"#utility.yul\":2444:2527   */\n      tag_75\n      jump\t// in\n    tag_112:\n        /* \"#utility.yul\":2437:2527   */\n      swap2\n      pop\n        /* \"#utility.yul\":2536:2629   */\n      tag_113\n        /* \"#utility.yul\":2625:2628   */\n      dup3\n        /* \"#utility.yul\":2536:2629   */\n      tag_76\n      jump\t// in\n    tag_113:\n        /* \"#utility.yul\":2654:2655   */\n      0x00\n        /* \"#utility.yul\":2649:2652   */\n      dup3\n        /* \"#utility.yul\":2645:2656   */\n      add\n        /* \"#utility.yul\":2638:2656   */\n      swap1\n      pop\n        /* \"#utility.yul\":2264:2662   */\n      swap2\n      swap1\n      pop\n      jump\t// out\n        /* \"#utility.yul\":2668:3047   */\n    tag_42:\n        /* \"#utility.yul\":2852:2855   */\n      0x00\n        /* \"#utility.yul\":2874:3021   */\n      tag_115\n        /* \"#utility.yul\":3017:3020   */\n      dup3\n        /* \"#utility.yul\":2874:3021   */\n      tag_77\n      jump\t// in\n    tag_115:\n        /* \"#utility.yul\":2867:3021   */\n      swap2\n      pop\n        /* \"#utility.yul\":3038:3041   */\n      dup2\n        /* \"#utility.yul\":3031:3041   */\n      swap1\n      pop\n        /* \"#utility.yul\":2668:3047   */\n      swap2\n      swap1\n      pop\n      jump\t// out\n        /* \"#utility.yul\":3053:3219   */\n    tag_78:\n        /* \"#utility.yul\":3193:3211   */\n      0x5769746864726177206661696c65642e00000000000000000000000000000000\n        /* \"#utility.yul\":3189:3190   */\n      0x00\n        /* \"#utility.yul\":3181:3187   */\n      dup3\n        /* \"#utility.yul\":3177:3191   */\n      add\n        /* \"#utility.yul\":3170:3212   */\n      mstore\n        /* \"#utility.yul\":3053:3219   */\n      pop\n      jump\t// out\n        /* \"#utility.yul\":3225:3591   */\n    tag_79:\n        /* \"#utility.yul\":3367:3370   */\n      0x00\n        /* \"#utility.yul\":3388:3455   */\n      tag_118\n        /* \"#utility.yul\":3452:3454   */\n      0x10\n        /* \"#utility.yul\":3447:3450   */\n      dup4\n        /* \"#utility.yul\":3388:3455   */\n      tag_70\n      jump\t// in\n    tag_118:\n        /* \"#utility.yul\":3381:3455   */\n      swap2\n      pop\n        /* \"#utility.yul\":3464:3557   */\n      tag_119\n        /* \"#utility.yul\":3553:3556   */\n      dup3\n        /* \"#utility.yul\":3464:3557   */\n      tag_78\n      jump\t// in\n    tag_119:\n        /* \"#utility.yul\":3582:3584   */\n      0x20\n        /* \"#utility.yul\":3577:3580   */\n      dup3\n        /* \"#utility.yul\":3573:3585   */\n      add\n        /* \"#utility.yul\":3566:3585   */\n      swap1\n      pop\n        /* \"#utility.yul\":3225:3591   */\n      swap2\n      swap1\n      pop\n      jump\t// out\n        /* \"#utility.yul\":3597:4016   */\n    tag_48:\n        /* \"#utility.yul\":3763:3767   */\n      0x00\n        /* \"#utility.yul\":3801:3803   */\n      0x20\n        /* \"#utility.yul\":3790:3799   */\n      dup3\n        /* \"#utility.yul\":3786:3804   */\n      add\n        /* \"#utility.yul\":3778:3804   */\n      swap1\n      pop\n        /* \"#utility.yul\":3850:3859   */\n      dup2\n        /* \"#utility.yul\":3844:3848   */\n      dup2\n        /* \"#utility.yul\":3840:3860   */\n      sub\n        /* \"#utility.yul\":3836:3837   */\n      0x00\n        /* \"#utility.yul\":3825:3834   */\n      dup4\n        /* \"#utility.yul\":3821:3838   */\n      add\n        /* \"#utility.yul\":3814:3861   */\n      mstore\n        /* \"#utility.yul\":3878:4009   */\n      tag_121\n        /* \"#utility.yul\":4004:4008   */\n      dup2\n        /* \"#utility.yul\":3878:4009   */\n      tag_79\n      jump\t// in\n    tag_121:\n        /* \"#utility.yul\":3870:4009   */\n      swap1\n      pop\n        /* \"#utility.yul\":3597:4016   */\n      swap2\n      swap1\n      pop\n      jump\t// out\n        /* \"#utility.yul\":4022:4432   */\n    tag_53:\n        /* \"#utility.yul\":4062:4069   */\n      0x00\n        /* \"#utility.yul\":4085:4105   */\n      tag_123\n        /* \"#utility.yul\":4103:4104   */\n      dup3\n        /* \"#utility.yul\":4085:4105   */\n      tag_73\n      jump\t// in\n    tag_123:\n        /* \"#utility.yul\":4080:4105   */\n      swap2\n      pop\n        /* \"#utility.yul\":4119:4139   */\n      tag_124\n        /* \"#utility.yul\":4137:4138   */\n      dup4\n        /* \"#utility.yul\":4119:4139   */\n      tag_73\n      jump\t// in\n    tag_124:\n        /* \"#utility.yul\":4114:4139   */\n      swap3\n      pop\n        /* \"#utility.yul\":4174:4175   */\n      dup3\n        /* \"#utility.yul\":4171:4172   */\n      dup3\n        /* \"#utility.yul\":4167:4176   */\n      mul\n        /* \"#utility.yul\":4196:4226   */\n      tag_125\n        /* \"#utility.yul\":4214:4225   */\n      dup2\n        /* \"#utility.yul\":4196:4226   */\n      tag_73\n      jump\t// in\n    tag_125:\n        /* \"#utility.yul\":4185:4226   */\n      swap2\n      pop\n        /* \"#utility.yul\":4375:4376   */\n      dup3\n        /* \"#utility.yul\":4366:4373   */\n      dup3\n        /* \"#utility.yul\":4362:4377   */\n      div\n        /* \"#utility.yul\":4359:4360   */\n      dup5\n        /* \"#utility.yul\":4356:4378   */\n      eq\n        /* \"#utility.yul\":4336:4337   */\n      dup4\n        /* \"#utility.yul\":4329:4338   */\n      iszero\n        /* \"#utility.yul\":4309:4392   */\n      or\n        /* \"#utility.yul\":4286:4425   */\n      tag_126\n      jumpi\n        /* \"#utility.yul\":4405:4423   */\n      tag_127\n      tag_74\n      jump\t// in\n    tag_127:\n        /* \"#utility.yul\":4286:4425   */\n    tag_126:\n        /* \"#utility.yul\":4070:4432   */\n      pop\n        /* \"#utility.yul\":4022:4432   */\n      swap3\n      swap2\n      pop\n      pop\n      jump\t// out\n        /* \"#utility.yul\":4438:4618   */\n    tag_80:\n        /* \"#utility.yul\":4486:4563   */\n      0x4e487b7100000000000000000000000000000000000000000000000000000000\n        /* \"#utility.yul\":4483:4484   */\n      0x00\n        /* \"#utility.yul\":4476:4564   */\n      mstore\n        /* \"#utility.yul\":4583:4587   */\n      0x12\n        /* \"#utility.yul\":4580:4581   */\n      0x04\n        /* \"#utility.yul\":4573:4588   */\n      mstore\n        /* \"#utility.yul\":4607:4611   */\n      0x24\n        /* \"#utility.yul\":4604:4605   */\n      0x00\n        /* \"#utility.yul\":4597:4612   */\n      revert\n        /* \"#utility.yul\":4624:4809   */\n    tag_55:\n        /* \"#utility.yul\":4664:4665   */\n      0x00\n        /* \"#utility.yul\":4681:4701   */\n      tag_130\n        /* \"#utility.yul\":4699:4700   */\n      dup3\n        /* \"#utility.yul\":4681:4701   */\n      tag_73\n      jump\t// in\n    tag_130:\n        /* \"#utility.yul\":4676:4701   */\n      swap2\n      pop\n        /* \"#utility.yul\":4715:4735   */\n      tag_131\n        /* \"#utility.yul\":4733:4734   */\n      dup4\n        /* \"#utility.yul\":4715:4735   */\n      tag_73\n      jump\t// in\n    tag_131:\n        /* \"#utility.yul\":4710:4735   */\n      swap3\n      pop\n        /* \"#utility.yul\":4754:4755   */\n      dup3\n        /* \"#utility.yul\":4744:4779   */\n      tag_132\n      jumpi\n        /* \"#utility.yul\":4759:4777   */\n      tag_133\n      tag_80\n      jump\t// in\n    tag_133:\n        /* \"#utility.yul\":4744:4779   */\n    tag_132:\n        /* \"#utility.yul\":4801:4802   */\n      dup3\n        /* \"#utility.yul\":4798:4799   */\n      dup3\n        /* \"#utility.yul\":4794:4803   */\n      div\n        /* \"#utility.yul\":4789:4803   */\n      swap1\n      pop\n        /* \"#utility.yul\":4624:4809   */\n      swap3\n      swap2\n      pop\n      pop\n      jump\t// out\n        /* \"#utility.yul\":4896:5013   */\n    tag_82:\n        /* \"#utility.yul\":5005:5006   */\n      0x00\n        /* \"#utility.yul\":5002:5003   */\n      dup1\n        /* \"#utility.yul\":4995:5007   */\n      revert\n        /* \"#utility.yul\":5142:5247   */\n    tag_84:\n        /* \"#utility.yul\":5178:5185   */\n      0x00\n        /* \"#utility.yul\":5218:5240   */\n      0xffffffffffffffffffff\n        /* \"#utility.yul\":5211:5216   */\n      dup3\n        /* \"#utility.yul\":5207:5241   */\n      and\n        /* \"#utility.yul\":5196:5241   */\n      swap1\n      pop\n        /* \"#utility.yul\":5142:5247   */\n      swap2\n      swap1\n      pop\n      jump\t// out\n        /* \"#utility.yul\":5253:5373   */\n    tag_85:\n        /* \"#utility.yul\":5325:5348   */\n      tag_139\n        /* \"#utility.yul\":5342:5347   */\n      dup2\n        /* \"#utility.yul\":5325:5348   */\n      tag_84\n      jump\t// in\n    tag_139:\n        /* \"#utility.yul\":5318:5323   */\n      dup2\n        /* \"#utility.yul\":5315:5349   */\n      eq\n        /* \"#utility.yul\":5305:5367   */\n      tag_140\n      jumpi\n        /* \"#utility.yul\":5363:5364   */\n      0x00\n        /* \"#utility.yul\":5360:5361   */\n      dup1\n        /* \"#utility.yul\":5353:5365   */\n      revert\n        /* \"#utility.yul\":5305:5367   */\n    tag_140:\n        /* \"#utility.yul\":5253:5373   */\n      pop\n      jump\t// out\n        /* \"#utility.yul\":5379:5520   */\n    tag_86:\n        /* \"#utility.yul\":5435:5440   */\n      0x00\n        /* \"#utility.yul\":5466:5472   */\n      dup2\n        /* \"#utility.yul\":5460:5473   */\n      mload\n        /* \"#utility.yul\":5451:5473   */\n      swap1\n      pop\n        /* \"#utility.yul\":5482:5514   */\n      tag_142\n        /* \"#utility.yul\":5508:5513   */\n      dup2\n        /* \"#utility.yul\":5482:5514   */\n      tag_85\n      jump\t// in\n    tag_142:\n        /* \"#utility.yul\":5379:5520   */\n      swap3\n      swap2\n      pop\n      pop\n      jump\t// out\n        /* \"#utility.yul\":5526:5602   */\n    tag_87:\n        /* \"#utility.yul\":5562:5569   */\n      0x00\n        /* \"#utility.yul\":5591:5596   */\n      dup2\n        /* \"#utility.yul\":5580:5596   */\n      swap1\n      pop\n        /* \"#utility.yul\":5526:5602   */\n      swap2\n      swap1\n      pop\n      jump\t// out\n        /* \"#utility.yul\":5608:5728   */\n    tag_88:\n        /* \"#utility.yul\":5680:5703   */\n      tag_145\n        /* \"#utility.yul\":5697:5702   */\n      dup2\n        /* \"#utility.yul\":5680:5703   */\n      tag_87\n      jump\t// in\n    tag_145:\n        /* \"#utility.yul\":5673:5678   */\n      dup2\n        /* \"#utility.yul\":5670:5704   */\n      eq\n        /* \"#utility.yul\":5660:5722   */\n      tag_146\n      jumpi\n        /* \"#utility.yul\":5718:5719   */\n      0x00\n        /* \"#utility.yul\":5715:5716   */\n      dup1\n        /* \"#utility.yul\":5708:5720   */\n      revert\n        /* \"#utility.yul\":5660:5722   */\n    tag_146:\n        /* \"#utility.yul\":5608:5728   */\n      pop\n      jump\t// out\n        /* \"#utility.yul\":5734:5875   */\n    tag_89:\n        /* \"#utility.yul\":5790:5795   */\n      0x00\n        /* \"#utility.yul\":5821:5827   */\n      dup2\n        /* \"#utility.yul\":5815:5828   */\n      mload\n        /* \"#utility.yul\":5806:5828   */\n      swap1\n      pop\n        /* \"#utility.yul\":5837:5869   */\n      tag_148\n        /* \"#utility.yul\":5863:5868   */\n      dup2\n        /* \"#utility.yul\":5837:5869   */\n      tag_88\n      jump\t// in\n    tag_148:\n        /* \"#utility.yul\":5734:5875   */\n      swap3\n      swap2\n      pop\n      pop\n      jump\t// out\n        /* \"#utility.yul\":5881:6003   */\n    tag_90:\n        /* \"#utility.yul\":5954:5978   */\n      tag_150\n        /* \"#utility.yul\":5972:5977   */\n      dup2\n        /* \"#utility.yul\":5954:5978   */\n      tag_73\n      jump\t// in\n    tag_150:\n        /* \"#utility.yul\":5947:5952   */\n      dup2\n        /* \"#utility.yul\":5944:5979   */\n      eq\n        /* \"#utility.yul\":5934:5997   */\n      tag_151\n      jumpi\n        /* \"#utility.yul\":5993:5994   */\n      0x00\n        /* \"#utility.yul\":5990:5991   */\n      dup1\n        /* \"#utility.yul\":5983:5995   */\n      revert\n        /* \"#utility.yul\":5934:5997   */\n    tag_151:\n        /* \"#utility.yul\":5881:6003   */\n      pop\n      jump\t// out\n        /* \"#utility.yul\":6009:6152   */\n    tag_91:\n        /* \"#utility.yul\":6066:6071   */\n      0x00\n        /* \"#utility.yul\":6097:6103   */\n      dup2\n        /* \"#utility.yul\":6091:6104   */\n      mload\n        /* \"#utility.yul\":6082:6104   */\n      swap1\n      pop\n        /* \"#utility.yul\":6113:6146   */\n      tag_153\n        /* \"#utility.yul\":6140:6145   */\n      dup2\n        /* \"#utility.yul\":6113:6146   */\n      tag_90\n      jump\t// in\n    tag_153:\n        /* \"#utility.yul\":6009:6152   */\n      swap3\n      swap2\n      pop\n      pop\n      jump\t// out\n        /* \"#utility.yul\":6158:7129   */\n    tag_60:\n        /* \"#utility.yul\":6261:6267   */\n      0x00\n        /* \"#utility.yul\":6269:6275   */\n      dup1\n        /* \"#utility.yul\":6277:6283   */\n      0x00\n        /* \"#utility.yul\":6285:6291   */\n      dup1\n        /* \"#utility.yul\":6293:6299   */\n      0x00\n        /* \"#utility.yul\":6342:6345   */\n      0xa0\n        /* \"#utility.yul\":6330:6339   */\n      dup7\n        /* \"#utility.yul\":6321:6328   */\n      dup9\n        /* \"#utility.yul\":6317:6340   */\n      sub\n        /* \"#utility.yul\":6313:6346   */\n      slt\n        /* \"#utility.yul\":6310:6430   */\n      iszero\n      tag_155\n      jumpi\n        /* \"#utility.yul\":6349:6428   */\n      tag_156\n      tag_82\n      jump\t// in\n    tag_156:\n        /* \"#utility.yul\":6310:6430   */\n    tag_155:\n        /* \"#utility.yul\":6469:6470   */\n      0x00\n        /* \"#utility.yul\":6494:6557   */\n      tag_157\n        /* \"#utility.yul\":6549:6556   */\n      dup9\n        /* \"#utility.yul\":6540:6546   */\n      dup3\n        /* \"#utility.yul\":6529:6538   */\n      dup10\n        /* \"#utility.yul\":6525:6547   */\n      add\n        /* \"#utility.yul\":6494:6557   */\n      tag_86\n      jump\t// in\n    tag_157:\n        /* \"#utility.yul\":6484:6557   */\n      swap6\n      pop\n        /* \"#utility.yul\":6440:6567   */\n      pop\n        /* \"#utility.yul\":6606:6608   */\n      0x20\n        /* \"#utility.yul\":6632:6695   */\n      tag_158\n        /* \"#utility.yul\":6687:6694   */\n      dup9\n        /* \"#utility.yul\":6678:6684   */\n      dup3\n        /* \"#utility.yul\":6667:6676   */\n      dup10\n        /* \"#utility.yul\":6663:6685   */\n      add\n        /* \"#utility.yul\":6632:6695   */\n      tag_89\n      jump\t// in\n    tag_158:\n        /* \"#utility.yul\":6622:6695   */\n      swap5\n      pop\n        /* \"#utility.yul\":6577:6705   */\n      pop\n        /* \"#utility.yul\":6744:6746   */\n      0x40\n        /* \"#utility.yul\":6770:6834   */\n      tag_159\n        /* \"#utility.yul\":6826:6833   */\n      dup9\n        /* \"#utility.yul\":6817:6823   */\n      dup3\n        /* \"#utility.yul\":6806:6815   */\n      dup10\n        /* \"#utility.yul\":6802:6824   */\n      add\n        /* \"#utility.yul\":6770:6834   */\n      tag_91\n      jump\t// in\n    tag_159:\n        /* \"#utility.yul\":6760:6834   */\n      swap4\n      pop\n        /* \"#utility.yul\":6715:6844   */\n      pop\n        /* \"#utility.yul\":6883:6885   */\n      0x60\n        /* \"#utility.yul\":6909:6973   */\n      tag_160\n        /* \"#utility.yul\":6965:6972   */\n      dup9\n        /* \"#utility.yul\":6956:6962   */\n      dup3\n        /* \"#utility.yul\":6945:6954   */\n      dup10\n        /* \"#utility.yul\":6941:6963   */\n      add\n        /* \"#utility.yul\":6909:6973   */\n      tag_91\n      jump\t// in\n    tag_160:\n        /* \"#utility.yul\":6899:6973   */\n      swap3\n      pop\n        /* \"#utility.yul\":6854:6983   */\n      pop\n        /* \"#utility.yul\":7022:7025   */\n      0x80\n        /* \"#utility.yul\":7049:7112   */\n      tag_161\n        /* \"#utility.yul\":7104:7111   */\n      dup9\n        /* \"#utility.yul\":7095:7101   */\n      dup3\n        /* \"#utility.yul\":7084:7093   */\n      dup10\n        /* \"#utility.yul\":7080:7102   */\n      add\n        /* \"#utility.yul\":7049:7112   */\n      tag_86\n      jump\t// in\n    tag_161:\n        /* \"#utility.yul\":7039:7112   */\n      swap2\n      pop\n        /* \"#utility.yul\":6993:7122   */\n      pop\n        /* \"#utility.yul\":6158:7129   */\n      swap3\n      swap6\n      pop\n      swap3\n      swap6\n      swap1\n      swap4\n      pop\n      jump\t// out\n        /* \"#utility.yul\":7135:7691   */\n    tag_62:\n        /* \"#utility.yul\":7174:7181   */\n      0x00\n        /* \"#utility.yul\":7197:7216   */\n      tag_163\n        /* \"#utility.yul\":7214:7215   */\n      dup3\n        /* \"#utility.yul\":7197:7216   */\n      tag_87\n      jump\t// in\n    tag_163:\n        /* \"#utility.yul\":7192:7216   */\n      swap2\n      pop\n        /* \"#utility.yul\":7230:7249   */\n      tag_164\n        /* \"#utility.yul\":7247:7248   */\n      dup4\n        /* \"#utility.yul\":7230:7249   */\n      tag_87\n      jump\t// in\n    tag_164:\n        /* \"#utility.yul\":7225:7249   */\n      swap3\n      pop\n        /* \"#utility.yul\":7284:7285   */\n      dup3\n        /* \"#utility.yul\":7281:7282   */\n      dup3\n        /* \"#utility.yul\":7277:7286   */\n      mul\n        /* \"#utility.yul\":7306:7335   */\n      tag_165\n        /* \"#utility.yul\":7323:7334   */\n      dup2\n        /* \"#utility.yul\":7306:7335   */\n      tag_87\n      jump\t// in\n    tag_165:\n        /* \"#utility.yul\":7295:7335   */\n      swap2\n      pop\n        /* \"#utility.yul\":7393:7459   */\n      0x8000000000000000000000000000000000000000000000000000000000000000\n        /* \"#utility.yul\":7390:7391   */\n      dup5\n        /* \"#utility.yul\":7387:7460   */\n      eq\n        /* \"#utility.yul\":7383:7384   */\n      0x00\n        /* \"#utility.yul\":7380:7381   */\n      dup5\n        /* \"#utility.yul\":7376:7385   */\n      slt\n        /* \"#utility.yul\":7372:7461   */\n      and\n        /* \"#utility.yul\":7369:7484   */\n      iszero\n      tag_166\n      jumpi\n        /* \"#utility.yul\":7464:7482   */\n      tag_167\n      tag_74\n      jump\t// in\n    tag_167:\n        /* \"#utility.yul\":7369:7484   */\n    tag_166:\n        /* \"#utility.yul\":7634:7635   */\n      dup3\n        /* \"#utility.yul\":7625:7632   */\n      dup3\n        /* \"#utility.yul\":7620:7636   */\n      sdiv\n        /* \"#utility.yul\":7617:7618   */\n      dup5\n        /* \"#utility.yul\":7614:7637   */\n      eq\n        /* \"#utility.yul\":7594:7595   */\n      dup4\n        /* \"#utility.yul\":7587:7596   */\n      iszero\n        /* \"#utility.yul\":7567:7651   */\n      or\n        /* \"#utility.yul\":7544:7684   */\n      tag_168\n      jumpi\n        /* \"#utility.yul\":7664:7682   */\n      tag_169\n      tag_74\n      jump\t// in\n    tag_169:\n        /* \"#utility.yul\":7544:7684   */\n    tag_168:\n        /* \"#utility.yul\":7182:7691   */\n      pop\n        /* \"#utility.yul\":7135:7691   */\n      swap3\n      swap2\n      pop\n      pop\n      jump\t// out\n\n    auxdata: 0xa264697066735822122052778f02846646229491b2165dd11f8126621411a1a6956e0b1530fb8a85ecfe64736f6c63430008190033\n}\n",
				"bytecode": {
					"linkReferences": {},
					"object": "60a0604052348015600e575f80fd5b503373ffffffffffffffffffffffffffffffffffffffff1660808173ffffffffffffffffffffffffffffffffffffffff168152505060805161095a61005b5f395f610184015261095a5ff3fe60806040526004361061002c575f3560e01c80633ccfd60b14610045578063b60d42881461005b5761003b565b3661003b57610039610065565b005b610043610065565b005b348015610050575f80fd5b5061005961016b565b005b610063610065565b005b674563918244f4000061007734610396565b116100b7576040517f08c379a00000000000000000000000000000000000000000000000000000000081526004016100ae9061056f565b60405180910390fd5b5f33908060018154018082558091505060019003905f5260205f20015f9091909190916101000a81548173ffffffffffffffffffffffffffffffffffffffff021916908373ffffffffffffffffffffffffffffffffffffffff1602179055503460015f3373ffffffffffffffffffffffffffffffffffffffff1673ffffffffffffffffffffffffffffffffffffffff1681526020019081526020015f205f82825461016291906105c3565b92505081905550565b3373ffffffffffffffffffffffffffffffffffffffff167f000000000000000000000000000000000000000000000000000000000000000073ffffffffffffffffffffffffffffffffffffffff16146101f0576040517f0229a90200000000000000000000000000000000000000000000000000000000815260040160405180910390fd5b5f5b5f8054905081101561028c575f808281548110610212576102116105f6565b5b905f5260205f20015f9054906101000a900473ffffffffffffffffffffffffffffffffffffffff1690505f60015f8373ffffffffffffffffffffffffffffffffffffffff1673ffffffffffffffffffffffffffffffffffffffff1681526020019081526020015f20819055505080806001019150506101f2565b505f67ffffffffffffffff8111156102a7576102a6610623565b5b6040519080825280602002602001820160405280156102d55781602001602082028036833780820191505090505b505f90805190602001906102ea929190610473565b505f3373ffffffffffffffffffffffffffffffffffffffff16476040516103109061067d565b5f6040518083038185875af1925050503d805f811461034a576040519150601f19603f3d011682016040523d82523d5f602084013e61034f565b606091505b5050905080610393576040517f08c379a000000000000000000000000000000000000000000000000000000000815260040161038a906106db565b60405180910390fd5b50565b5f806103a06103ce565b90505f670de0b6b3a764000084836103b891906106f9565b6103c29190610767565b90508092505050919050565b5f8073694aa1769357215de4fac081bf1f309adc32530690505f8173ffffffffffffffffffffffffffffffffffffffff1663feaf968c6040518163ffffffff1660e01b815260040160a060405180830381865afa158015610431573d5f803e3d5ffd5b505050506040513d601f19601f820116820180604052508101906104559190610837565b5050509150506402540be4008161046c91906108ae565b9250505090565b828054828255905f5260205f209081019282156104e9579160200282015b828111156104e8578251825f6101000a81548173ffffffffffffffffffffffffffffffffffffffff021916908373ffffffffffffffffffffffffffffffffffffffff16021790555091602001919060010190610491565b5b5090506104f691906104fa565b5090565b5b80821115610511575f815f9055506001016104fb565b5090565b5f82825260208201905092915050565b7f6174206c65617374203520646f6c6c61727300000000000000000000000000005f82015250565b5f610559601283610515565b915061056482610525565b602082019050919050565b5f6020820190508181035f8301526105868161054d565b9050919050565b5f819050919050565b7f4e487b71000000000000000000000000000000000000000000000000000000005f52601160045260245ffd5b5f6105cd8261058d565b91506105d88361058d565b92508282019050808211156105f0576105ef610596565b5b92915050565b7f4e487b71000000000000000000000000000000000000000000000000000000005f52603260045260245ffd5b7f4e487b71000000000000000000000000000000000000000000000000000000005f52604160045260245ffd5b5f81905092915050565b50565b5f6106685f83610650565b91506106738261065a565b5f82019050919050565b5f6106878261065d565b9150819050919050565b7f5769746864726177206661696c65642e000000000000000000000000000000005f82015250565b5f6106c5601083610515565b91506106d082610691565b602082019050919050565b5f6020820190508181035f8301526106f2816106b9565b9050919050565b5f6107038261058d565b915061070e8361058d565b925082820261071c8161058d565b9150828204841483151761073357610732610596565b5b5092915050565b7f4e487b71000000000000000000000000000000000000000000000000000000005f52601260045260245ffd5b5f6107718261058d565b915061077c8361058d565b92508261078c5761078b61073a565b5b828204905092915050565b5f80fd5b5f69ffffffffffffffffffff82169050919050565b6107b98161079b565b81146107c3575f80fd5b50565b5f815190506107d4816107b0565b92915050565b5f819050919050565b6107ec816107da565b81146107f6575f80fd5b50565b5f81519050610807816107e3565b92915050565b6108168161058d565b8114610820575f80fd5b50565b5f815190506108318161080d565b92915050565b5f805f805f60a086880312156108505761084f610797565b5b5f61085d888289016107c6565b955050602061086e888289016107f9565b945050604061087f88828901610823565b935050606061089088828901610823565b92505060806108a1888289016107c6565b9150509295509295909350565b5f6108b8826107da565b91506108c3836107da565b92508282026108d1816107da565b91507f800000000000000000000000000000000000000000000000000000000000000084145f8412161561090857610907610596565b5b828205841483151761091d5761091c610596565b5b509291505056fea264697066735822122052778f02846646229491b2165dd11f8126621411a1a6956e0b1530fb8a85ecfe64736f6c63430008190033",
					"opcodes": "PUSH1 0xA0 PUSH1 0x40 MSTORE CALLVALUE DUP1 ISZERO PUSH1 0xE JUMPI PUSH0 DUP1 REVERT JUMPDEST POP CALLER PUSH20 0xFFFFFFFFFFFFFFFFFFFFFFFFFFFFFFFFFFFFFFFF AND PUSH1 0x80 DUP2 PUSH20 0xFFFFFFFFFFFFFFFFFFFFFFFFFFFFFFFFFFFFFFFF AND DUP2 MSTORE POP POP PUSH1 0x80 MLOAD PUSH2 0x95A PUSH2 0x5B PUSH0 CODECOPY PUSH0 PUSH2 0x184 ADD MSTORE PUSH2 0x95A PUSH0 RETURN INVALID PUSH1 0x80 PUSH1 0x40 MSTORE PUSH1 0x4 CALLDATASIZE LT PUSH2 0x2C JUMPI PUSH0 CALLDATALOAD PUSH1 0xE0 SHR DUP1 PUSH4 0x3CCFD60B EQ PUSH2 0x45 JUMPI DUP1 PUSH4 0xB60D4288 EQ PUSH2 0x5B JUMPI PUSH2 0x3B JUMP JUMPDEST CALLDATASIZE PUSH2 0x3B JUMPI PUSH2 0x39 PUSH2 0x65 JUMP JUMPDEST STOP JUMPDEST PUSH2 0x43 PUSH2 0x65 JUMP JUMPDEST STOP JUMPDEST CALLVALUE DUP1 ISZERO PUSH2 0x50 JUMPI PUSH0 DUP1 REVERT JUMPDEST POP PUSH2 0x59 PUSH2 0x16B JUMP JUMPDEST STOP JUMPDEST PUSH2 0x63 PUSH2 0x65 JUMP JUMPDEST STOP JUMPDEST PUSH8 0x4563918244F40000 PUSH2 0x77 CALLVALUE PUSH2 0x396 JUMP JUMPDEST GT PUSH2 0xB7 JUMPI PUSH1 0x40 MLOAD PUSH32 0x8C379A000000000000000000000000000000000000000000000000000000000 DUP2 MSTORE PUSH1 0x4 ADD PUSH2 0xAE SWAP1 PUSH2 0x56F JUMP JUMPDEST PUSH1 0x40 MLOAD DUP1 SWAP2 SUB SWAP1 REVERT JUMPDEST PUSH0 CALLER SWAP1 DUP1 PUSH1 0x1 DUP2 SLOAD ADD DUP1 DUP3 SSTORE DUP1 SWAP2 POP POP PUSH1 0x1 SWAP1 SUB SWAP1 PUSH0 MSTORE PUSH1 0x20 PUSH0 KECCAK256 ADD PUSH0 SWAP1 SWAP2 SWAP1 SWAP2 SWAP1 SWAP2 PUSH2 0x100 EXP DUP2 SLOAD DUP2 PUSH20 0xFFFFFFFFFFFFFFFFFFFFFFFFFFFFFFFFFFFFFFFF MUL NOT AND SWAP1 DUP4 PUSH20 0xFFFFFFFFFFFFFFFFFFFFFFFFFFFFFFFFFFFFFFFF AND MUL OR SWAP1 SSTORE POP CALLVALUE PUSH1 0x1 PUSH0 CALLER PUSH20 0xFFFFFFFFFFFFFFFFFFFFFFFFFFFFFFFFFFFFFFFF AND PUSH20 0xFFFFFFFFFFFFFFFFFFFFFFFFFFFFFFFFFFFFFFFF AND DUP2 MSTORE PUSH1 0x20 ADD SWAP1 DUP2 MSTORE PUSH1 0x20 ADD PUSH0 KECCAK256 PUSH0 DUP3 DUP3 SLOAD PUSH2 0x162 SWAP2 SWAP1 PUSH2 0x5C3 JUMP JUMPDEST SWAP3 POP POP DUP2 SWAP1 SSTORE POP JUMP JUMPDEST CALLER PUSH20 0xFFFFFFFFFFFFFFFFFFFFFFFFFFFFFFFFFFFFFFFF AND PUSH32 0x0 PUSH20 0xFFFFFFFFFFFFFFFFFFFFFFFFFFFFFFFFFFFFFFFF AND EQ PUSH2 0x1F0 JUMPI PUSH1 0x40 MLOAD PUSH32 0x229A90200000000000000000000000000000000000000000000000000000000 DUP2 MSTORE PUSH1 0x4 ADD PUSH1 0x40 MLOAD DUP1 SWAP2 SUB SWAP1 REVERT JUMPDEST PUSH0 JUMPDEST PUSH0 DUP1 SLOAD SWAP1 POP DUP2 LT ISZERO PUSH2 0x28C JUMPI PUSH0 DUP1 DUP3 DUP2 SLOAD DUP2 LT PUSH2 0x212 JUMPI PUSH2 0x211 PUSH2 0x5F6 JUMP JUMPDEST JUMPDEST SWAP1 PUSH0 MSTORE PUSH1 0x20 PUSH0 KECCAK256 ADD PUSH0 SWAP1 SLOAD SWAP1 PUSH2 0x100 EXP SWAP1 DIV PUSH20 0xFFFFFFFFFFFFFFFFFFFFFFFFFFFFFFFFFFFFFFFF AND SWAP1 POP PUSH0 PUSH1 0x1 PUSH0 DUP4 PUSH20 0xFFFFFFFFFFFFFFFFFFFFFFFFFFFFFFFFFFFFFFFF AND PUSH20 0xFFFFFFFFFFFFFFFFFFFFFFFFFFFFFFFFFFFFFFFF AND DUP2 MSTORE PUSH1 0x20 ADD SWAP1 DUP2 MSTORE PUSH1 0x20 ADD PUSH0 KECCAK256 DUP2 SWAP1 SSTORE POP POP DUP1 DUP1 PUSH1 0x1 ADD SWAP2 POP POP PUSH2 0x1F2 JUMP JUMPDEST POP PUSH0 PUSH8 0xFFFFFFFFFFFFFFFF DUP2 GT ISZERO PUSH2 0x2A7 JUMPI PUSH2 0x2A6 PUSH2 0x623 JUMP JUMPDEST JUMPDEST PUSH1 0x40 MLOAD SWAP1 DUP1 DUP3 MSTORE DUP1 PUSH1 0x20 MUL PUSH1 0x20 ADD DUP3 ADD PUSH1 0x40 MSTORE DUP1 ISZERO PUSH2 0x2D5 JUMPI DUP2 PUSH1 0x20 ADD PUSH1 0x20 DUP3 MUL DUP1 CALLDATASIZE DUP4 CALLDATACOPY DUP1 DUP3 ADD SWAP2 POP POP SWAP1 POP JUMPDEST POP PUSH0 SWAP1 DUP1 MLOAD SWAP1 PUSH1 0x20 ADD SWAP1 PUSH2 0x2EA SWAP3 SWAP2 SWAP1 PUSH2 0x473 JUMP JUMPDEST POP PUSH0 CALLER PUSH20 0xFFFFFFFFFFFFFFFFFFFFFFFFFFFFFFFFFFFFFFFF AND SELFBALANCE PUSH1 0x40 MLOAD PUSH2 0x310 SWAP1 PUSH2 0x67D JUMP JUMPDEST PUSH0 PUSH1 0x40 MLOAD DUP1 DUP4 SUB DUP2 DUP6 DUP8 GAS CALL SWAP3 POP POP POP RETURNDATASIZE DUP1 PUSH0 DUP2 EQ PUSH2 0x34A JUMPI PUSH1 0x40 MLOAD SWAP2 POP PUSH1 0x1F NOT PUSH1 0x3F RETURNDATASIZE ADD AND DUP3 ADD PUSH1 0x40 MSTORE RETURNDATASIZE DUP3 MSTORE RETURNDATASIZE PUSH0 PUSH1 0x20 DUP5 ADD RETURNDATACOPY PUSH2 0x34F JUMP JUMPDEST PUSH1 0x60 SWAP2 POP JUMPDEST POP POP SWAP1 POP DUP1 PUSH2 0x393 JUMPI PUSH1 0x40 MLOAD PUSH32 0x8C379A000000000000000000000000000000000000000000000000000000000 DUP2 MSTORE PUSH1 0x4 ADD PUSH2 0x38A SWAP1 PUSH2 0x6DB JUMP JUMPDEST PUSH1 0x40 MLOAD DUP1 SWAP2 SUB SWAP1 REVERT JUMPDEST POP JUMP JUMPDEST PUSH0 DUP1 PUSH2 0x3A0 PUSH2 0x3CE JUMP JUMPDEST SWAP1 POP PUSH0 PUSH8 0xDE0B6B3A7640000 DUP5 DUP4 PUSH2 0x3B8 SWAP2 SWAP1 PUSH2 0x6F9 JUMP JUMPDEST PUSH2 0x3C2 SWAP2 SWAP1 PUSH2 0x767 JUMP JUMPDEST SWAP1 POP DUP1 SWAP3 POP POP POP SWAP2 SWAP1 POP JUMP JUMPDEST PUSH0 DUP1 PUSH20 0x694AA1769357215DE4FAC081BF1F309ADC325306 SWAP1 POP PUSH0 DUP2 PUSH20 0xFFFFFFFFFFFFFFFFFFFFFFFFFFFFFFFFFFFFFFFF AND PUSH4 0xFEAF968C PUSH1 0x40 MLOAD DUP2 PUSH4 0xFFFFFFFF AND PUSH1 0xE0 SHL DUP2 MSTORE PUSH1 0x4 ADD PUSH1 0xA0 PUSH1 0x40 MLOAD DUP1 DUP4 SUB DUP2 DUP7 GAS STATICCALL ISZERO DUP1 ISZERO PUSH2 0x431 JUMPI RETURNDATASIZE PUSH0 DUP1 RETURNDATACOPY RETURNDATASIZE PUSH0 REVERT JUMPDEST POP POP POP POP PUSH1 0x40 MLOAD RETURNDATASIZE PUSH1 0x1F NOT PUSH1 0x1F DUP3 ADD AND DUP3 ADD DUP1 PUSH1 0x40 MSTORE POP DUP2 ADD SWAP1 PUSH2 0x455 SWAP2 SWAP1 PUSH2 0x837 JUMP JUMPDEST POP POP POP SWAP2 POP POP PUSH5 0x2540BE400 DUP2 PUSH2 0x46C SWAP2 SWAP1 PUSH2 0x8AE JUMP JUMPDEST SWAP3 POP POP POP SWAP1 JUMP JUMPDEST DUP3 DUP1 SLOAD DUP3 DUP3 SSTORE SWAP1 PUSH0 MSTORE PUSH1 0x20 PUSH0 KECCAK256 SWAP1 DUP2 ADD SWAP3 DUP3 ISZERO PUSH2 0x4E9 JUMPI SWAP2 PUSH1 0x20 MUL DUP3 ADD JUMPDEST DUP3 DUP2 GT ISZERO PUSH2 0x4E8 JUMPI DUP3 MLOAD DUP3 PUSH0 PUSH2 0x100 EXP DUP2 SLOAD DUP2 PUSH20 0xFFFFFFFFFFFFFFFFFFFFFFFFFFFFFFFFFFFFFFFF MUL NOT AND SWAP1 DUP4 PUSH20 0xFFFFFFFFFFFFFFFFFFFFFFFFFFFFFFFFFFFFFFFF AND MUL OR SWAP1 SSTORE POP SWAP2 PUSH1 0x20 ADD SWAP2 SWAP1 PUSH1 0x1 ADD SWAP1 PUSH2 0x491 JUMP JUMPDEST JUMPDEST POP SWAP1 POP PUSH2 0x4F6 SWAP2 SWAP1 PUSH2 0x4FA JUMP JUMPDEST POP SWAP1 JUMP JUMPDEST JUMPDEST DUP1 DUP3 GT ISZERO PUSH2 0x511 JUMPI PUSH0 DUP2 PUSH0 SWAP1 SSTORE POP PUSH1 0x1 ADD PUSH2 0x4FB JUMP JUMPDEST POP SWAP1 JUMP JUMPDEST PUSH0 DUP3 DUP3 MSTORE PUSH1 0x20 DUP3 ADD SWAP1 POP SWAP3 SWAP2 POP POP JUMP JUMPDEST PUSH32 0x6174206C65617374203520646F6C6C6172730000000000000000000000000000 PUSH0 DUP3 ADD MSTORE POP JUMP JUMPDEST PUSH0 PUSH2 0x559 PUSH1 0x12 DUP4 PUSH2 0x515 JUMP JUMPDEST SWAP2 POP PUSH2 0x564 DUP3 PUSH2 0x525 JUMP JUMPDEST PUSH1 0x20 DUP3 ADD SWAP1 POP SWAP2 SWAP1 POP JUMP JUMPDEST PUSH0 PUSH1 0x20 DUP3 ADD SWAP1 POP DUP2 DUP2 SUB PUSH0 DUP4 ADD MSTORE PUSH2 0x586 DUP2 PUSH2 0x54D JUMP JUMPDEST SWAP1 POP SWAP2 SWAP1 POP JUMP JUMPDEST PUSH0 DUP2 SWAP1 POP SWAP2 SWAP1 POP JUMP JUMPDEST PUSH32 0x4E487B7100000000000000000000000000000000000000000000000000000000 PUSH0 MSTORE PUSH1 0x11 PUSH1 0x4 MSTORE PUSH1 0x24 PUSH0 REVERT JUMPDEST PUSH0 PUSH2 0x5CD DUP3 PUSH2 0x58D JUMP JUMPDEST SWAP2 POP PUSH2 0x5D8 DUP4 PUSH2 0x58D JUMP JUMPDEST SWAP3 POP DUP3 DUP3 ADD SWAP1 POP DUP1 DUP3 GT ISZERO PUSH2 0x5F0 JUMPI PUSH2 0x5EF PUSH2 0x596 JUMP JUMPDEST JUMPDEST SWAP3 SWAP2 POP POP JUMP JUMPDEST PUSH32 0x4E487B7100000000000000000000000000000000000000000000000000000000 PUSH0 MSTORE PUSH1 0x32 PUSH1 0x4 MSTORE PUSH1 0x24 PUSH0 REVERT JUMPDEST PUSH32 0x4E487B7100000000000000000000000000000000000000000000000000000000 PUSH0 MSTORE PUSH1 0x41 PUSH1 0x4 MSTORE PUSH1 0x24 PUSH0 REVERT JUMPDEST PUSH0 DUP2 SWAP1 POP SWAP3 SWAP2 POP POP JUMP JUMPDEST POP JUMP JUMPDEST PUSH0 PUSH2 0x668 PUSH0 DUP4 PUSH2 0x650 JUMP JUMPDEST SWAP2 POP PUSH2 0x673 DUP3 PUSH2 0x65A JUMP JUMPDEST PUSH0 DUP3 ADD SWAP1 POP SWAP2 SWAP1 POP JUMP JUMPDEST PUSH0 PUSH2 0x687 DUP3 PUSH2 0x65D JUMP JUMPDEST SWAP2 POP DUP2 SWAP1 POP SWAP2 SWAP1 POP JUMP JUMPDEST PUSH32 0x5769746864726177206661696C65642E00000000000000000000000000000000 PUSH0 DUP3 ADD MSTORE POP JUMP JUMPDEST PUSH0 PUSH2 0x6C5 PUSH1 0x10 DUP4 PUSH2 0x515 JUMP JUMPDEST SWAP2 POP PUSH2 0x6D0 DUP3 PUSH2 0x691 JUMP JUMPDEST PUSH1 0x20 DUP3 ADD SWAP1 POP SWAP2 SWAP1 POP JUMP JUMPDEST PUSH0 PUSH1 0x20 DUP3 ADD SWAP1 POP DUP2 DUP2 SUB PUSH0 DUP4 ADD MSTORE PUSH2 0x6F2 DUP2 PUSH2 0x6B9 JUMP JUMPDEST SWAP1 POP SWAP2 SWAP1 POP JUMP JUMPDEST PUSH0 PUSH2 0x703 DUP3 PUSH2 0x58D JUMP JUMPDEST SWAP2 POP PUSH2 0x70E DUP4 PUSH2 0x58D JUMP JUMPDEST SWAP3 POP DUP3 DUP3 MUL PUSH2 0x71C DUP2 PUSH2 0x58D JUMP JUMPDEST SWAP2 POP DUP3 DUP3 DIV DUP5 EQ DUP4 ISZERO OR PUSH2 0x733 JUMPI PUSH2 0x732 PUSH2 0x596 JUMP JUMPDEST JUMPDEST POP SWAP3 SWAP2 POP POP JUMP JUMPDEST PUSH32 0x4E487B7100000000000000000000000000000000000000000000000000000000 PUSH0 MSTORE PUSH1 0x12 PUSH1 0x4 MSTORE PUSH1 0x24 PUSH0 REVERT JUMPDEST PUSH0 PUSH2 0x771 DUP3 PUSH2 0x58D JUMP JUMPDEST SWAP2 POP PUSH2 0x77C DUP4 PUSH2 0x58D JUMP JUMPDEST SWAP3 POP DUP3 PUSH2 0x78C JUMPI PUSH2 0x78B PUSH2 0x73A JUMP JUMPDEST JUMPDEST DUP3 DUP3 DIV SWAP1 POP SWAP3 SWAP2 POP POP JUMP JUMPDEST PUSH0 DUP1 REVERT JUMPDEST PUSH0 PUSH10 0xFFFFFFFFFFFFFFFFFFFF DUP3 AND SWAP1 POP SWAP2 SWAP1 POP JUMP JUMPDEST PUSH2 0x7B9 DUP2 PUSH2 0x79B JUMP JUMPDEST DUP2 EQ PUSH2 0x7C3 JUMPI PUSH0 DUP1 REVERT JUMPDEST POP JUMP JUMPDEST PUSH0 DUP2 MLOAD SWAP1 POP PUSH2 0x7D4 DUP2 PUSH2 0x7B0 JUMP JUMPDEST SWAP3 SWAP2 POP POP JUMP JUMPDEST PUSH0 DUP2 SWAP1 POP SWAP2 SWAP1 POP JUMP JUMPDEST PUSH2 0x7EC DUP2 PUSH2 0x7DA JUMP JUMPDEST DUP2 EQ PUSH2 0x7F6 JUMPI PUSH0 DUP1 REVERT JUMPDEST POP JUMP JUMPDEST PUSH0 DUP2 MLOAD SWAP1 POP PUSH2 0x807 DUP2 PUSH2 0x7E3 JUMP JUMPDEST SWAP3 SWAP2 POP POP JUMP JUMPDEST PUSH2 0x816 DUP2 PUSH2 0x58D JUMP JUMPDEST DUP2 EQ PUSH2 0x820 JUMPI PUSH0 DUP1 REVERT JUMPDEST POP JUMP JUMPDEST PUSH0 DUP2 MLOAD SWAP1 POP PUSH2 0x831 DUP2 PUSH2 0x80D JUMP JUMPDEST SWAP3 SWAP2 POP POP JUMP JUMPDEST PUSH0 DUP1 PUSH0 DUP1 PUSH0 PUSH1 0xA0 DUP7 DUP9 SUB SLT ISZERO PUSH2 0x850 JUMPI PUSH2 0x84F PUSH2 0x797 JUMP JUMPDEST JUMPDEST PUSH0 PUSH2 0x85D DUP9 DUP3 DUP10 ADD PUSH2 0x7C6 JUMP JUMPDEST SWAP6 POP POP PUSH1 0x20 PUSH2 0x86E DUP9 DUP3 DUP10 ADD PUSH2 0x7F9 JUMP JUMPDEST SWAP5 POP POP PUSH1 0x40 PUSH2 0x87F DUP9 DUP3 DUP10 ADD PUSH2 0x823 JUMP JUMPDEST SWAP4 POP POP PUSH1 0x60 PUSH2 0x890 DUP9 DUP3 DUP10 ADD PUSH2 0x823 JUMP JUMPDEST SWAP3 POP POP PUSH1 0x80 PUSH2 0x8A1 DUP9 DUP3 DUP10 ADD PUSH2 0x7C6 JUMP JUMPDEST SWAP2 POP POP SWAP3 SWAP6 POP SWAP3 SWAP6 SWAP1 SWAP4 POP JUMP JUMPDEST PUSH0 PUSH2 0x8B8 DUP3 PUSH2 0x7DA JUMP JUMPDEST SWAP2 POP PUSH2 0x8C3 DUP4 PUSH2 0x7DA JUMP JUMPDEST SWAP3 POP DUP3 DUP3 MUL PUSH2 0x8D1 DUP2 PUSH2 0x7DA JUMP JUMPDEST SWAP2 POP PUSH32 0x8000000000000000000000000000000000000000000000000000000000000000 DUP5 EQ PUSH0 DUP5 SLT AND ISZERO PUSH2 0x908 JUMPI PUSH2 0x907 PUSH2 0x596 JUMP JUMPDEST JUMPDEST DUP3 DUP3 SDIV DUP5 EQ DUP4 ISZERO OR PUSH2 0x91D JUMPI PUSH2 0x91C PUSH2 0x596 JUMP JUMPDEST JUMPDEST POP SWAP3 SWAP2 POP POP JUMP INVALID LOG2 PUSH5 0x6970667358 0x22 SLT KECCAK256 MSTORE PUSH24 0x8F02846646229491B2165DD11F8126621411A1A6956E0B15 ADDRESS 0xFB DUP11 DUP6 0xEC INVALID PUSH5 0x736F6C6343 STOP ADDMOD NOT STOP CALLER "
				},
				"gasEstimates": {
					"creation": {
						"codeDepositCost": "478800",
						"executionCost": "infinite",
						"totalCost": "infinite"
					},
					"external": {
						"": "infinite",
						"fund()": "infinite",
						"withdraw()": "infinite"
					}
				},
				"methodIdentifiers": {
					"fund()": "b60d4288",
					"withdraw()": "3ccfd60b"
				}
			},
			"storageLayout": {
				"storage": [
					{
						"astId": 64,
						"contract": "contracts/FundMe.sol:FundMe",
						"label": "funders",
						"offset": 0,
						"slot": "0",
						"type": "t_array(t_address)dyn_storage"
					},
					{
						"astId": 68,
						"contract": "contracts/FundMe.sol:FundMe",
						"label": "addressToAmount",
						"offset": 0,
						"slot": "1",
						"type": "t_mapping(t_address,t_uint256)"
					}
				],
				"types": {
					"t_address": {
						"encoding": "inplace",
						"label": "address",
						"numberOfBytes": "20"
					},
					"t_array(t_address)dyn_storage": {
						"base": "t_address",
						"encoding": "dynamic_array",
						"label": "address[]",
						"numberOfBytes": "32"
					},
					"t_mapping(t_address,t_uint256)": {
						"encoding": "mapping",
						"key": "t_address",
						"label": "mapping(address => uint256)",
						"numberOfBytes": "32",
						"value": "t_uint256"
					},
					"t_uint256": {
						"encoding": "inplace",
						"label": "uint256",
						"numberOfBytes": "32"
					}
				}
			},
			"userdoc": {
				"kind": "user",
				"methods": {},
				"version": 1
			}
		}
	}
}