{
	"contracts/FundMe.sol": {
		"FundMe": {
			"abi": [
				{
					"inputs": [],
					"name": "fund",
					"outputs": [],
					"stateMutability": "payable",
					"type": "function"
				},
				{
					"inputs": [
						{
							"internalType": "uint256",
							"name": "ethAmount",
							"type": "uint256"
						}
					],
					"name": "getConversionRate",
					"outputs": [
						{
							"internalType": "uint256",
							"name": "",
							"type": "uint256"
						}
					],
					"stateMutability": "view",
					"type": "function"
				},
				{
					"inputs": [],
					"name": "getPrice",
					"outputs": [
						{
							"internalType": "uint256",
							"name": "",
							"type": "uint256"
						}
					],
					"stateMutability": "view",
					"type": "function"
				},
				{
					"inputs": [],
					"name": "withdraw",
					"outputs": [],
					"stateMutability": "nonpayable",
					"type": "function"
				}
			],
			"devdoc": {
				"kind": "dev",
				"methods": {},
				"version": 1
			},
			"evm": {
				"assembly": "    /* \"contracts/FundMe.sol\":172:1094  contract FundMe{... */\n  mstore(0x40, 0x80)\n    /* \"contracts/FundMe.sol\":222:234  5 * 10 ** 18 */\n  0x4563918244f40000\n    /* \"contracts/FundMe.sol\":194:234  uint256 internal minInUSD = 5 * 10 ** 18 */\n  0x00\n  sstore\n    /* \"contracts/FundMe.sol\":172:1094  contract FundMe{... */\n  callvalue\n  dup1\n  iszero\n  tag_1\n  jumpi\n  0x00\n  dup1\n  revert\ntag_1:\n  pop\n  dataSize(sub_0)\n  dup1\n  dataOffset(sub_0)\n  0x00\n  codecopy\n  0x00\n  return\nstop\n\nsub_0: assembly {\n        /* \"contracts/FundMe.sol\":172:1094  contract FundMe{... */\n      mstore(0x40, 0x80)\n      jumpi(tag_1, lt(calldatasize, 0x04))\n      shr(0xe0, calldataload(0x00))\n      dup1\n      0x3ccfd60b\n      eq\n      tag_2\n      jumpi\n      dup1\n      0x6e5b6b28\n      eq\n      tag_3\n      jumpi\n      dup1\n      0x98d5fdca\n      eq\n      tag_4\n      jumpi\n      dup1\n      0xb60d4288\n      eq\n      tag_5\n      jumpi\n    tag_1:\n      0x00\n      dup1\n      revert\n        /* \"contracts/FundMe.sol\":466:501  function withdraw() public {... */\n    tag_2:\n      callvalue\n      dup1\n      iszero\n      tag_6\n      jumpi\n      0x00\n      dup1\n      revert\n    tag_6:\n      pop\n      tag_7\n      tag_8\n      jump\t// in\n    tag_7:\n      stop\n        /* \"contracts/FundMe.sol\":887:1090  function getConversionRate(uint256 ethAmount) public view returns(uint256){... */\n    tag_3:\n      callvalue\n      dup1\n      iszero\n      tag_9\n      jumpi\n      0x00\n      dup1\n      revert\n    tag_9:\n      pop\n      tag_10\n      0x04\n      dup1\n      calldatasize\n      sub\n      dup2\n      add\n      swap1\n      tag_11\n      swap2\n      swap1\n      tag_12\n      jump\t// in\n    tag_11:\n      tag_13\n      jump\t// in\n    tag_10:\n      mload(0x40)\n      tag_14\n      swap2\n      swap1\n      tag_15\n      jump\t// in\n    tag_14:\n      mload(0x40)\n      dup1\n      swap2\n      sub\n      swap1\n      return\n        /* \"contracts/FundMe.sol\":543:881  function getPrice() public view returns(uint256){... */\n    tag_4:\n      callvalue\n      dup1\n      iszero\n      tag_16\n      jumpi\n      0x00\n      dup1\n      revert\n    tag_16:\n      pop\n      tag_17\n      tag_18\n      jump\t// in\n    tag_17:\n      mload(0x40)\n      tag_19\n      swap2\n      swap1\n      tag_15\n      jump\t// in\n    tag_19:\n      mload(0x40)\n      dup1\n      swap2\n      sub\n      swap1\n      return\n        /* \"contracts/FundMe.sol\":241:459  function fund() public payable {... */\n    tag_5:\n      tag_20\n      tag_21\n      jump\t// in\n    tag_20:\n      stop\n        /* \"contracts/FundMe.sol\":466:501  function withdraw() public {... */\n    tag_8:\n      jump\t// out\n        /* \"contracts/FundMe.sol\":887:1090  function getConversionRate(uint256 ethAmount) public view returns(uint256){... */\n    tag_13:\n        /* \"contracts/FundMe.sol\":953:960  uint256 */\n      0x00\n        /* \"contracts/FundMe.sol\":971:987  uint256 ethPrice */\n      dup1\n        /* \"contracts/FundMe.sol\":990:1000  getPrice() */\n      tag_24\n        /* \"contracts/FundMe.sol\":990:998  getPrice */\n      tag_18\n        /* \"contracts/FundMe.sol\":990:1000  getPrice() */\n      jump\t// in\n    tag_24:\n        /* \"contracts/FundMe.sol\":971:1000  uint256 ethPrice = getPrice() */\n      swap1\n      pop\n        /* \"contracts/FundMe.sol\":1010:1026  uint256 ethInUSD */\n      0x00\n        /* \"contracts/FundMe.sol\":1054:1058  1e18 */\n      0x0de0b6b3a7640000\n        /* \"contracts/FundMe.sol\":1041:1050  ethAmount */\n      dup5\n        /* \"contracts/FundMe.sol\":1030:1038  ethPrice */\n      dup4\n        /* \"contracts/FundMe.sol\":1030:1050  ethPrice * ethAmount */\n      tag_25\n      swap2\n      swap1\n      tag_26\n      jump\t// in\n    tag_25:\n        /* \"contracts/FundMe.sol\":1029:1058  (ethPrice * ethAmount) / 1e18 */\n      tag_27\n      swap2\n      swap1\n      tag_28\n      jump\t// in\n    tag_27:\n        /* \"contracts/FundMe.sol\":1010:1058  uint256 ethInUSD = (ethPrice * ethAmount) / 1e18 */\n      swap1\n      pop\n        /* \"contracts/FundMe.sol\":1075:1083  ethInUSD */\n      dup1\n        /* \"contracts/FundMe.sol\":1068:1083  return ethInUSD */\n      swap3\n      pop\n      pop\n      pop\n        /* \"contracts/FundMe.sol\":887:1090  function getConversionRate(uint256 ethAmount) public view returns(uint256){... */\n      swap2\n      swap1\n      pop\n      jump\t// out\n        /* \"contracts/FundMe.sol\":543:881  function getPrice() public view returns(uint256){... */\n    tag_18:\n        /* \"contracts/FundMe.sol\":583:590  uint256 */\n      0x00\n        /* \"contracts/FundMe.sol\":601:632  AggregatorV3Interface priceFeed */\n      dup1\n        /* \"contracts/FundMe.sol\":657:699  0x694AA1769357215DE4FAC081bf1f309aDC325306 */\n      0x694aa1769357215de4fac081bf1f309adc325306\n        /* \"contracts/FundMe.sol\":601:700  AggregatorV3Interface priceFeed = AggregatorV3Interface(0x694AA1769357215DE4FAC081bf1f309aDC325306) */\n      swap1\n      pop\n        /* \"contracts/FundMe.sol\":713:726  int256 answer */\n      0x00\n        /* \"contracts/FundMe.sol\":736:745  priceFeed */\n      dup2\n        /* \"contracts/FundMe.sol\":736:761  priceFeed.latestRoundData */\n      0xffffffffffffffffffffffffffffffffffffffff\n      and\n      0xfeaf968c\n        /* \"contracts/FundMe.sol\":736:763  priceFeed.latestRoundData() */\n      mload(0x40)\n      dup2\n      0xffffffff\n      and\n      0xe0\n      shl\n      dup2\n      mstore\n      0x04\n      add\n      0xa0\n      mload(0x40)\n      dup1\n      dup4\n      sub\n      dup2\n      dup7\n      gas\n      staticcall\n      iszero\n      dup1\n      iszero\n      tag_31\n      jumpi\n      returndatasize\n      0x00\n      dup1\n      returndatacopy\n      revert(0x00, returndatasize)\n    tag_31:\n      pop\n      pop\n      pop\n      pop\n      mload(0x40)\n      returndatasize\n      not(0x1f)\n      0x1f\n      dup3\n      add\n      and\n      dup3\n      add\n      dup1\n      0x40\n      mstore\n      pop\n      dup2\n      add\n      swap1\n      tag_32\n      swap2\n      swap1\n      tag_33\n      jump\t// in\n    tag_32:\n        /* \"contracts/FundMe.sol\":710:763  (, int256 answer, , , ) = priceFeed.latestRoundData() */\n      pop\n      pop\n      pop\n      swap2\n      pop\n      pop\n        /* \"contracts/FundMe.sol\":867:873  answer */\n      dup1\n        /* \"contracts/FundMe.sol\":852:874  return uint256(answer) */\n      swap3\n      pop\n      pop\n      pop\n        /* \"contracts/FundMe.sol\":543:881  function getPrice() public view returns(uint256){... */\n      swap1\n      jump\t// out\n        /* \"contracts/FundMe.sol\":241:459  function fund() public payable {... */\n    tag_21:\n        /* \"contracts/FundMe.sol\":420:428  minInUSD */\n      sload(0x00)\n        /* \"contracts/FundMe.sol\":389:417  getConversionRate(msg.value) */\n      tag_35\n        /* \"contracts/FundMe.sol\":407:416  msg.value */\n      callvalue\n        /* \"contracts/FundMe.sol\":389:406  getConversionRate */\n      tag_13\n        /* \"contracts/FundMe.sol\":389:417  getConversionRate(msg.value) */\n      jump\t// in\n    tag_35:\n        /* \"contracts/FundMe.sol\":389:428  getConversionRate(msg.value) > minInUSD */\n      gt\n        /* \"contracts/FundMe.sol\":381:451  require(getConversionRate(msg.value) > minInUSD, \"at least 5 dollars\") */\n      tag_36\n      jumpi\n      mload(0x40)\n      0x08c379a000000000000000000000000000000000000000000000000000000000\n      dup2\n      mstore\n      0x04\n      add\n      tag_37\n      swap1\n      tag_38\n      jump\t// in\n    tag_37:\n      mload(0x40)\n      dup1\n      swap2\n      sub\n      swap1\n      revert\n    tag_36:\n        /* \"contracts/FundMe.sol\":241:459  function fund() public payable {... */\n      jump\t// out\n        /* \"#utility.yul\":88:205   */\n    tag_40:\n        /* \"#utility.yul\":197:198   */\n      0x00\n        /* \"#utility.yul\":194:195   */\n      dup1\n        /* \"#utility.yul\":187:199   */\n      revert\n        /* \"#utility.yul\":334:411   */\n    tag_42:\n        /* \"#utility.yul\":371:378   */\n      0x00\n        /* \"#utility.yul\":400:405   */\n      dup2\n        /* \"#utility.yul\":389:405   */\n      swap1\n      pop\n        /* \"#utility.yul\":334:411   */\n      swap2\n      swap1\n      pop\n      jump\t// out\n        /* \"#utility.yul\":417:539   */\n    tag_43:\n        /* \"#utility.yul\":490:514   */\n      tag_64\n        /* \"#utility.yul\":508:513   */\n      dup2\n        /* \"#utility.yul\":490:514   */\n      tag_42\n      jump\t// in\n    tag_64:\n        /* \"#utility.yul\":483:488   */\n      dup2\n        /* \"#utility.yul\":480:515   */\n      eq\n        /* \"#utility.yul\":470:533   */\n      tag_65\n      jumpi\n        /* \"#utility.yul\":529:530   */\n      0x00\n        /* \"#utility.yul\":526:527   */\n      dup1\n        /* \"#utility.yul\":519:531   */\n      revert\n        /* \"#utility.yul\":470:533   */\n    tag_65:\n        /* \"#utility.yul\":417:539   */\n      pop\n      jump\t// out\n        /* \"#utility.yul\":545:684   */\n    tag_44:\n        /* \"#utility.yul\":591:596   */\n      0x00\n        /* \"#utility.yul\":629:635   */\n      dup2\n        /* \"#utility.yul\":616:636   */\n      calldataload\n        /* \"#utility.yul\":607:636   */\n      swap1\n      pop\n        /* \"#utility.yul\":645:678   */\n      tag_67\n        /* \"#utility.yul\":672:677   */\n      dup2\n        /* \"#utility.yul\":645:678   */\n      tag_43\n      jump\t// in\n    tag_67:\n        /* \"#utility.yul\":545:684   */\n      swap3\n      swap2\n      pop\n      pop\n      jump\t// out\n        /* \"#utility.yul\":690:1019   */\n    tag_12:\n        /* \"#utility.yul\":749:755   */\n      0x00\n        /* \"#utility.yul\":798:800   */\n      0x20\n        /* \"#utility.yul\":786:795   */\n      dup3\n        /* \"#utility.yul\":777:784   */\n      dup5\n        /* \"#utility.yul\":773:796   */\n      sub\n        /* \"#utility.yul\":769:801   */\n      slt\n        /* \"#utility.yul\":766:885   */\n      iszero\n      tag_69\n      jumpi\n        /* \"#utility.yul\":804:883   */\n      tag_70\n      tag_40\n      jump\t// in\n    tag_70:\n        /* \"#utility.yul\":766:885   */\n    tag_69:\n        /* \"#utility.yul\":924:925   */\n      0x00\n        /* \"#utility.yul\":949:1002   */\n      tag_71\n        /* \"#utility.yul\":994:1001   */\n      dup5\n        /* \"#utility.yul\":985:991   */\n      dup3\n        /* \"#utility.yul\":974:983   */\n      dup6\n        /* \"#utility.yul\":970:992   */\n      add\n        /* \"#utility.yul\":949:1002   */\n      tag_44\n      jump\t// in\n    tag_71:\n        /* \"#utility.yul\":939:1002   */\n      swap2\n      pop\n        /* \"#utility.yul\":895:1012   */\n      pop\n        /* \"#utility.yul\":690:1019   */\n      swap3\n      swap2\n      pop\n      pop\n      jump\t// out\n        /* \"#utility.yul\":1025:1143   */\n    tag_45:\n        /* \"#utility.yul\":1112:1136   */\n      tag_73\n        /* \"#utility.yul\":1130:1135   */\n      dup2\n        /* \"#utility.yul\":1112:1136   */\n      tag_42\n      jump\t// in\n    tag_73:\n        /* \"#utility.yul\":1107:1110   */\n      dup3\n        /* \"#utility.yul\":1100:1137   */\n      mstore\n        /* \"#utility.yul\":1025:1143   */\n      pop\n      pop\n      jump\t// out\n        /* \"#utility.yul\":1149:1371   */\n    tag_15:\n        /* \"#utility.yul\":1242:1246   */\n      0x00\n        /* \"#utility.yul\":1280:1282   */\n      0x20\n        /* \"#utility.yul\":1269:1278   */\n      dup3\n        /* \"#utility.yul\":1265:1283   */\n      add\n        /* \"#utility.yul\":1257:1283   */\n      swap1\n      pop\n        /* \"#utility.yul\":1293:1364   */\n      tag_75\n        /* \"#utility.yul\":1361:1362   */\n      0x00\n        /* \"#utility.yul\":1350:1359   */\n      dup4\n        /* \"#utility.yul\":1346:1363   */\n      add\n        /* \"#utility.yul\":1337:1343   */\n      dup5\n        /* \"#utility.yul\":1293:1364   */\n      tag_45\n      jump\t// in\n    tag_75:\n        /* \"#utility.yul\":1149:1371   */\n      swap3\n      swap2\n      pop\n      pop\n      jump\t// out\n        /* \"#utility.yul\":1377:1557   */\n    tag_46:\n        /* \"#utility.yul\":1425:1502   */\n      0x4e487b7100000000000000000000000000000000000000000000000000000000\n        /* \"#utility.yul\":1422:1423   */\n      0x00\n        /* \"#utility.yul\":1415:1503   */\n      mstore\n        /* \"#utility.yul\":1522:1526   */\n      0x11\n        /* \"#utility.yul\":1519:1520   */\n      0x04\n        /* \"#utility.yul\":1512:1527   */\n      mstore\n        /* \"#utility.yul\":1546:1550   */\n      0x24\n        /* \"#utility.yul\":1543:1544   */\n      0x00\n        /* \"#utility.yul\":1536:1551   */\n      revert\n        /* \"#utility.yul\":1563:1973   */\n    tag_26:\n        /* \"#utility.yul\":1603:1610   */\n      0x00\n        /* \"#utility.yul\":1626:1646   */\n      tag_78\n        /* \"#utility.yul\":1644:1645   */\n      dup3\n        /* \"#utility.yul\":1626:1646   */\n      tag_42\n      jump\t// in\n    tag_78:\n        /* \"#utility.yul\":1621:1646   */\n      swap2\n      pop\n        /* \"#utility.yul\":1660:1680   */\n      tag_79\n        /* \"#utility.yul\":1678:1679   */\n      dup4\n        /* \"#utility.yul\":1660:1680   */\n      tag_42\n      jump\t// in\n    tag_79:\n        /* \"#utility.yul\":1655:1680   */\n      swap3\n      pop\n        /* \"#utility.yul\":1715:1716   */\n      dup3\n        /* \"#utility.yul\":1712:1713   */\n      dup3\n        /* \"#utility.yul\":1708:1717   */\n      mul\n        /* \"#utility.yul\":1737:1767   */\n      tag_80\n        /* \"#utility.yul\":1755:1766   */\n      dup2\n        /* \"#utility.yul\":1737:1767   */\n      tag_42\n      jump\t// in\n    tag_80:\n        /* \"#utility.yul\":1726:1767   */\n      swap2\n      pop\n        /* \"#utility.yul\":1916:1917   */\n      dup3\n        /* \"#utility.yul\":1907:1914   */\n      dup3\n        /* \"#utility.yul\":1903:1918   */\n      div\n        /* \"#utility.yul\":1900:1901   */\n      dup5\n        /* \"#utility.yul\":1897:1919   */\n      eq\n        /* \"#utility.yul\":1877:1878   */\n      dup4\n        /* \"#utility.yul\":1870:1879   */\n      iszero\n        /* \"#utility.yul\":1850:1933   */\n      or\n        /* \"#utility.yul\":1827:1966   */\n      tag_81\n      jumpi\n        /* \"#utility.yul\":1946:1964   */\n      tag_82\n      tag_46\n      jump\t// in\n    tag_82:\n        /* \"#utility.yul\":1827:1966   */\n    tag_81:\n        /* \"#utility.yul\":1611:1973   */\n      pop\n        /* \"#utility.yul\":1563:1973   */\n      swap3\n      swap2\n      pop\n      pop\n      jump\t// out\n        /* \"#utility.yul\":1979:2159   */\n    tag_47:\n        /* \"#utility.yul\":2027:2104   */\n      0x4e487b7100000000000000000000000000000000000000000000000000000000\n        /* \"#utility.yul\":2024:2025   */\n      0x00\n        /* \"#utility.yul\":2017:2105   */\n      mstore\n        /* \"#utility.yul\":2124:2128   */\n      0x12\n        /* \"#utility.yul\":2121:2122   */\n      0x04\n        /* \"#utility.yul\":2114:2129   */\n      mstore\n        /* \"#utility.yul\":2148:2152   */\n      0x24\n        /* \"#utility.yul\":2145:2146   */\n      0x00\n        /* \"#utility.yul\":2138:2153   */\n      revert\n        /* \"#utility.yul\":2165:2350   */\n    tag_28:\n        /* \"#utility.yul\":2205:2206   */\n      0x00\n        /* \"#utility.yul\":2222:2242   */\n      tag_85\n        /* \"#utility.yul\":2240:2241   */\n      dup3\n        /* \"#utility.yul\":2222:2242   */\n      tag_42\n      jump\t// in\n    tag_85:\n        /* \"#utility.yul\":2217:2242   */\n      swap2\n      pop\n        /* \"#utility.yul\":2256:2276   */\n      tag_86\n        /* \"#utility.yul\":2274:2275   */\n      dup4\n        /* \"#utility.yul\":2256:2276   */\n      tag_42\n      jump\t// in\n    tag_86:\n        /* \"#utility.yul\":2251:2276   */\n      swap3\n      pop\n        /* \"#utility.yul\":2295:2296   */\n      dup3\n        /* \"#utility.yul\":2285:2320   */\n      tag_87\n      jumpi\n        /* \"#utility.yul\":2300:2318   */\n      tag_88\n      tag_47\n      jump\t// in\n    tag_88:\n        /* \"#utility.yul\":2285:2320   */\n    tag_87:\n        /* \"#utility.yul\":2342:2343   */\n      dup3\n        /* \"#utility.yul\":2339:2340   */\n      dup3\n        /* \"#utility.yul\":2335:2344   */\n      div\n        /* \"#utility.yul\":2330:2344   */\n      swap1\n      pop\n        /* \"#utility.yul\":2165:2350   */\n      swap3\n      swap2\n      pop\n      pop\n      jump\t// out\n        /* \"#utility.yul\":2356:2461   */\n    tag_48:\n        /* \"#utility.yul\":2392:2399   */\n      0x00\n        /* \"#utility.yul\":2432:2454   */\n      0xffffffffffffffffffff\n        /* \"#utility.yul\":2425:2430   */\n      dup3\n        /* \"#utility.yul\":2421:2455   */\n      and\n        /* \"#utility.yul\":2410:2455   */\n      swap1\n      pop\n        /* \"#utility.yul\":2356:2461   */\n      swap2\n      swap1\n      pop\n      jump\t// out\n        /* \"#utility.yul\":2467:2587   */\n    tag_49:\n        /* \"#utility.yul\":2539:2562   */\n      tag_91\n        /* \"#utility.yul\":2556:2561   */\n      dup2\n        /* \"#utility.yul\":2539:2562   */\n      tag_48\n      jump\t// in\n    tag_91:\n        /* \"#utility.yul\":2532:2537   */\n      dup2\n        /* \"#utility.yul\":2529:2563   */\n      eq\n        /* \"#utility.yul\":2519:2581   */\n      tag_92\n      jumpi\n        /* \"#utility.yul\":2577:2578   */\n      0x00\n        /* \"#utility.yul\":2574:2575   */\n      dup1\n        /* \"#utility.yul\":2567:2579   */\n      revert\n        /* \"#utility.yul\":2519:2581   */\n    tag_92:\n        /* \"#utility.yul\":2467:2587   */\n      pop\n      jump\t// out\n        /* \"#utility.yul\":2593:2734   */\n    tag_50:\n        /* \"#utility.yul\":2649:2654   */\n      0x00\n        /* \"#utility.yul\":2680:2686   */\n      dup2\n        /* \"#utility.yul\":2674:2687   */\n      mload\n        /* \"#utility.yul\":2665:2687   */\n      swap1\n      pop\n        /* \"#utility.yul\":2696:2728   */\n      tag_94\n        /* \"#utility.yul\":2722:2727   */\n      dup2\n        /* \"#utility.yul\":2696:2728   */\n      tag_49\n      jump\t// in\n    tag_94:\n        /* \"#utility.yul\":2593:2734   */\n      swap3\n      swap2\n      pop\n      pop\n      jump\t// out\n        /* \"#utility.yul\":2740:2816   */\n    tag_51:\n        /* \"#utility.yul\":2776:2783   */\n      0x00\n        /* \"#utility.yul\":2805:2810   */\n      dup2\n        /* \"#utility.yul\":2794:2810   */\n      swap1\n      pop\n        /* \"#utility.yul\":2740:2816   */\n      swap2\n      swap1\n      pop\n      jump\t// out\n        /* \"#utility.yul\":2822:2942   */\n    tag_52:\n        /* \"#utility.yul\":2894:2917   */\n      tag_97\n        /* \"#utility.yul\":2911:2916   */\n      dup2\n        /* \"#utility.yul\":2894:2917   */\n      tag_51\n      jump\t// in\n    tag_97:\n        /* \"#utility.yul\":2887:2892   */\n      dup2\n        /* \"#utility.yul\":2884:2918   */\n      eq\n        /* \"#utility.yul\":2874:2936   */\n      tag_98\n      jumpi\n        /* \"#utility.yul\":2932:2933   */\n      0x00\n        /* \"#utility.yul\":2929:2930   */\n      dup1\n        /* \"#utility.yul\":2922:2934   */\n      revert\n        /* \"#utility.yul\":2874:2936   */\n    tag_98:\n        /* \"#utility.yul\":2822:2942   */\n      pop\n      jump\t// out\n        /* \"#utility.yul\":2948:3089   */\n    tag_53:\n        /* \"#utility.yul\":3004:3009   */\n      0x00\n        /* \"#utility.yul\":3035:3041   */\n      dup2\n        /* \"#utility.yul\":3029:3042   */\n      mload\n        /* \"#utility.yul\":3020:3042   */\n      swap1\n      pop\n        /* \"#utility.yul\":3051:3083   */\n      tag_100\n        /* \"#utility.yul\":3077:3082   */\n      dup2\n        /* \"#utility.yul\":3051:3083   */\n      tag_52\n      jump\t// in\n    tag_100:\n        /* \"#utility.yul\":2948:3089   */\n      swap3\n      swap2\n      pop\n      pop\n      jump\t// out\n        /* \"#utility.yul\":3095:3238   */\n    tag_54:\n        /* \"#utility.yul\":3152:3157   */\n      0x00\n        /* \"#utility.yul\":3183:3189   */\n      dup2\n        /* \"#utility.yul\":3177:3190   */\n      mload\n        /* \"#utility.yul\":3168:3190   */\n      swap1\n      pop\n        /* \"#utility.yul\":3199:3232   */\n      tag_102\n        /* \"#utility.yul\":3226:3231   */\n      dup2\n        /* \"#utility.yul\":3199:3232   */\n      tag_43\n      jump\t// in\n    tag_102:\n        /* \"#utility.yul\":3095:3238   */\n      swap3\n      swap2\n      pop\n      pop\n      jump\t// out\n        /* \"#utility.yul\":3244:4215   */\n    tag_33:\n        /* \"#utility.yul\":3347:3353   */\n      0x00\n        /* \"#utility.yul\":3355:3361   */\n      dup1\n        /* \"#utility.yul\":3363:3369   */\n      0x00\n        /* \"#utility.yul\":3371:3377   */\n      dup1\n        /* \"#utility.yul\":3379:3385   */\n      0x00\n        /* \"#utility.yul\":3428:3431   */\n      0xa0\n        /* \"#utility.yul\":3416:3425   */\n      dup7\n        /* \"#utility.yul\":3407:3414   */\n      dup9\n        /* \"#utility.yul\":3403:3426   */\n      sub\n        /* \"#utility.yul\":3399:3432   */\n      slt\n        /* \"#utility.yul\":3396:3516   */\n      iszero\n      tag_104\n      jumpi\n        /* \"#utility.yul\":3435:3514   */\n      tag_105\n      tag_40\n      jump\t// in\n    tag_105:\n        /* \"#utility.yul\":3396:3516   */\n    tag_104:\n        /* \"#utility.yul\":3555:3556   */\n      0x00\n        /* \"#utility.yul\":3580:3643   */\n      tag_106\n        /* \"#utility.yul\":3635:3642   */\n      dup9\n        /* \"#utility.yul\":3626:3632   */\n      dup3\n        /* \"#utility.yul\":3615:3624   */\n      dup10\n        /* \"#utility.yul\":3611:3633   */\n      add\n        /* \"#utility.yul\":3580:3643   */\n      tag_50\n      jump\t// in\n    tag_106:\n        /* \"#utility.yul\":3570:3643   */\n      swap6\n      pop\n        /* \"#utility.yul\":3526:3653   */\n      pop\n        /* \"#utility.yul\":3692:3694   */\n      0x20\n        /* \"#utility.yul\":3718:3781   */\n      tag_107\n        /* \"#utility.yul\":3773:3780   */\n      dup9\n        /* \"#utility.yul\":3764:3770   */\n      dup3\n        /* \"#utility.yul\":3753:3762   */\n      dup10\n        /* \"#utility.yul\":3749:3771   */\n      add\n        /* \"#utility.yul\":3718:3781   */\n      tag_53\n      jump\t// in\n    tag_107:\n        /* \"#utility.yul\":3708:3781   */\n      swap5\n      pop\n        /* \"#utility.yul\":3663:3791   */\n      pop\n        /* \"#utility.yul\":3830:3832   */\n      0x40\n        /* \"#utility.yul\":3856:3920   */\n      tag_108\n        /* \"#utility.yul\":3912:3919   */\n      dup9\n        /* \"#utility.yul\":3903:3909   */\n      dup3\n        /* \"#utility.yul\":3892:3901   */\n      dup10\n        /* \"#utility.yul\":3888:3910   */\n      add\n        /* \"#utility.yul\":3856:3920   */\n      tag_54\n      jump\t// in\n    tag_108:\n        /* \"#utility.yul\":3846:3920   */\n      swap4\n      pop\n        /* \"#utility.yul\":3801:3930   */\n      pop\n        /* \"#utility.yul\":3969:3971   */\n      0x60\n        /* \"#utility.yul\":3995:4059   */\n      tag_109\n        /* \"#utility.yul\":4051:4058   */\n      dup9\n        /* \"#utility.yul\":4042:4048   */\n      dup3\n        /* \"#utility.yul\":4031:4040   */\n      dup10\n        /* \"#utility.yul\":4027:4049   */\n      add\n        /* \"#utility.yul\":3995:4059   */\n      tag_54\n      jump\t// in\n    tag_109:\n        /* \"#utility.yul\":3985:4059   */\n      swap3\n      pop\n        /* \"#utility.yul\":3940:4069   */\n      pop\n        /* \"#utility.yul\":4108:4111   */\n      0x80\n        /* \"#utility.yul\":4135:4198   */\n      tag_110\n        /* \"#utility.yul\":4190:4197   */\n      dup9\n        /* \"#utility.yul\":4181:4187   */\n      dup3\n        /* \"#utility.yul\":4170:4179   */\n      dup10\n        /* \"#utility.yul\":4166:4188   */\n      add\n        /* \"#utility.yul\":4135:4198   */\n      tag_50\n      jump\t// in\n    tag_110:\n        /* \"#utility.yul\":4125:4198   */\n      swap2\n      pop\n        /* \"#utility.yul\":4079:4208   */\n      pop\n        /* \"#utility.yul\":3244:4215   */\n      swap3\n      swap6\n      pop\n      swap3\n      swap6\n      swap1\n      swap4\n      pop\n      jump\t// out\n        /* \"#utility.yul\":4221:4390   */\n    tag_55:\n        /* \"#utility.yul\":4305:4316   */\n      0x00\n        /* \"#utility.yul\":4339:4345   */\n      dup3\n        /* \"#utility.yul\":4334:4337   */\n      dup3\n        /* \"#utility.yul\":4327:4346   */\n      mstore\n        /* \"#utility.yul\":4379:4383   */\n      0x20\n        /* \"#utility.yul\":4374:4377   */\n      dup3\n        /* \"#utility.yul\":4370:4384   */\n      add\n        /* \"#utility.yul\":4355:4384   */\n      swap1\n      pop\n        /* \"#utility.yul\":4221:4390   */\n      swap3\n      swap2\n      pop\n      pop\n      jump\t// out\n        /* \"#utility.yul\":4396:4564   */\n    tag_56:\n        /* \"#utility.yul\":4536:4556   */\n      0x6174206c65617374203520646f6c6c6172730000000000000000000000000000\n        /* \"#utility.yul\":4532:4533   */\n      0x00\n        /* \"#utility.yul\":4524:4530   */\n      dup3\n        /* \"#utility.yul\":4520:4534   */\n      add\n        /* \"#utility.yul\":4513:4557   */\n      mstore\n        /* \"#utility.yul\":4396:4564   */\n      pop\n      jump\t// out\n        /* \"#utility.yul\":4570:4936   */\n    tag_57:\n        /* \"#utility.yul\":4712:4715   */\n      0x00\n        /* \"#utility.yul\":4733:4800   */\n      tag_114\n        /* \"#utility.yul\":4797:4799   */\n      0x12\n        /* \"#utility.yul\":4792:4795   */\n      dup4\n        /* \"#utility.yul\":4733:4800   */\n      tag_55\n      jump\t// in\n    tag_114:\n        /* \"#utility.yul\":4726:4800   */\n      swap2\n      pop\n        /* \"#utility.yul\":4809:4902   */\n      tag_115\n        /* \"#utility.yul\":4898:4901   */\n      dup3\n        /* \"#utility.yul\":4809:4902   */\n      tag_56\n      jump\t// in\n    tag_115:\n        /* \"#utility.yul\":4927:4929   */\n      0x20\n        /* \"#utility.yul\":4922:4925   */\n      dup3\n        /* \"#utility.yul\":4918:4930   */\n      add\n        /* \"#utility.yul\":4911:4930   */\n      swap1\n      pop\n        /* \"#utility.yul\":4570:4936   */\n      swap2\n      swap1\n      pop\n      jump\t// out\n        /* \"#utility.yul\":4942:5361   */\n    tag_38:\n        /* \"#utility.yul\":5108:5112   */\n      0x00\n        /* \"#utility.yul\":5146:5148   */\n      0x20\n        /* \"#utility.yul\":5135:5144   */\n      dup3\n        /* \"#utility.yul\":5131:5149   */\n      add\n        /* \"#utility.yul\":5123:5149   */\n      swap1\n      pop\n        /* \"#utility.yul\":5195:5204   */\n      dup2\n        /* \"#utility.yul\":5189:5193   */\n      dup2\n        /* \"#utility.yul\":5185:5205   */\n      sub\n        /* \"#utility.yul\":5181:5182   */\n      0x00\n        /* \"#utility.yul\":5170:5179   */\n      dup4\n        /* \"#utility.yul\":5166:5183   */\n      add\n        /* \"#utility.yul\":5159:5206   */\n      mstore\n        /* \"#utility.yul\":5223:5354   */\n      tag_117\n        /* \"#utility.yul\":5349:5353   */\n      dup2\n        /* \"#utility.yul\":5223:5354   */\n      tag_57\n      jump\t// in\n    tag_117:\n        /* \"#utility.yul\":5215:5354   */\n      swap1\n      pop\n        /* \"#utility.yul\":4942:5361   */\n      swap2\n      swap1\n      pop\n      jump\t// out\n\n    auxdata: 0xa2646970667358221220a31521a4b4f6569bccca5902973477f955f8e448b65efcb590b04ded2f32c82464736f6c63430008160033\n}\n",
				"bytecode": {
					"linkReferences": {},
					"object": "6080604052674563918244f400005f5534801561001a575f80fd5b506104e4806100285f395ff3fe60806040526004361061003e575f3560e01c80633ccfd60b146100425780636e5b6b281461005857806398d5fdca14610094578063b60d4288146100be575b5f80fd5b34801561004d575f80fd5b506100566100c8565b005b348015610063575f80fd5b5061007e6004803603810190610079919061021b565b6100ca565b60405161008b9190610255565b60405180910390f35b34801561009f575f80fd5b506100a8610102565b6040516100b59190610255565b60405180910390f35b6100c6610197565b005b565b5f806100d4610102565b90505f670de0b6b3a764000084836100ec919061029b565b6100f69190610309565b90508092505050919050565b5f8073694aa1769357215de4fac081bf1f309adc32530690505f8173ffffffffffffffffffffffffffffffffffffffff1663feaf968c6040518163ffffffff1660e01b815260040160a060405180830381865afa158015610165573d5f803e3d5ffd5b505050506040513d601f19601f8201168201806040525081019061018991906103bf565b505050915050809250505090565b5f546101a2346100ca565b116101e2576040517f08c379a00000000000000000000000000000000000000000000000000000000081526004016101d990610490565b60405180910390fd5b565b5f80fd5b5f819050919050565b6101fa816101e8565b8114610204575f80fd5b50565b5f81359050610215816101f1565b92915050565b5f602082840312156102305761022f6101e4565b5b5f61023d84828501610207565b91505092915050565b61024f816101e8565b82525050565b5f6020820190506102685f830184610246565b92915050565b7f4e487b71000000000000000000000000000000000000000000000000000000005f52601160045260245ffd5b5f6102a5826101e8565b91506102b0836101e8565b92508282026102be816101e8565b915082820484148315176102d5576102d461026e565b5b5092915050565b7f4e487b71000000000000000000000000000000000000000000000000000000005f52601260045260245ffd5b5f610313826101e8565b915061031e836101e8565b92508261032e5761032d6102dc565b5b828204905092915050565b5f69ffffffffffffffffffff82169050919050565b61035781610339565b8114610361575f80fd5b50565b5f815190506103728161034e565b92915050565b5f819050919050565b61038a81610378565b8114610394575f80fd5b50565b5f815190506103a581610381565b92915050565b5f815190506103b9816101f1565b92915050565b5f805f805f60a086880312156103d8576103d76101e4565b5b5f6103e588828901610364565b95505060206103f688828901610397565b9450506040610407888289016103ab565b9350506060610418888289016103ab565b925050608061042988828901610364565b9150509295509295909350565b5f82825260208201905092915050565b7f6174206c65617374203520646f6c6c61727300000000000000000000000000005f82015250565b5f61047a601283610436565b915061048582610446565b602082019050919050565b5f6020820190508181035f8301526104a78161046e565b905091905056fea2646970667358221220a31521a4b4f6569bccca5902973477f955f8e448b65efcb590b04ded2f32c82464736f6c63430008160033",
					"opcodes": "PUSH1 0x80 PUSH1 0x40 MSTORE PUSH8 0x4563918244F40000 PUSH0 SSTORE CALLVALUE DUP1 ISZERO PUSH2 0x1A JUMPI PUSH0 DUP1 REVERT JUMPDEST POP PUSH2 0x4E4 DUP1 PUSH2 0x28 PUSH0 CODECOPY PUSH0 RETURN INVALID PUSH1 0x80 PUSH1 0x40 MSTORE PUSH1 0x4 CALLDATASIZE LT PUSH2 0x3E JUMPI PUSH0 CALLDATALOAD PUSH1 0xE0 SHR DUP1 PUSH4 0x3CCFD60B EQ PUSH2 0x42 JUMPI DUP1 PUSH4 0x6E5B6B28 EQ PUSH2 0x58 JUMPI DUP1 PUSH4 0x98D5FDCA EQ PUSH2 0x94 JUMPI DUP1 PUSH4 0xB60D4288 EQ PUSH2 0xBE JUMPI JUMPDEST PUSH0 DUP1 REVERT JUMPDEST CALLVALUE DUP1 ISZERO PUSH2 0x4D JUMPI PUSH0 DUP1 REVERT JUMPDEST POP PUSH2 0x56 PUSH2 0xC8 JUMP JUMPDEST STOP JUMPDEST CALLVALUE DUP1 ISZERO PUSH2 0x63 JUMPI PUSH0 DUP1 REVERT JUMPDEST POP PUSH2 0x7E PUSH1 0x4 DUP1 CALLDATASIZE SUB DUP2 ADD SWAP1 PUSH2 0x79 SWAP2 SWAP1 PUSH2 0x21B JUMP JUMPDEST PUSH2 0xCA JUMP JUMPDEST PUSH1 0x40 MLOAD PUSH2 0x8B SWAP2 SWAP1 PUSH2 0x255 JUMP JUMPDEST PUSH1 0x40 MLOAD DUP1 SWAP2 SUB SWAP1 RETURN JUMPDEST CALLVALUE DUP1 ISZERO PUSH2 0x9F JUMPI PUSH0 DUP1 REVERT JUMPDEST POP PUSH2 0xA8 PUSH2 0x102 JUMP JUMPDEST PUSH1 0x40 MLOAD PUSH2 0xB5 SWAP2 SWAP1 PUSH2 0x255 JUMP JUMPDEST PUSH1 0x40 MLOAD DUP1 SWAP2 SUB SWAP1 RETURN JUMPDEST PUSH2 0xC6 PUSH2 0x197 JUMP JUMPDEST STOP JUMPDEST JUMP JUMPDEST PUSH0 DUP1 PUSH2 0xD4 PUSH2 0x102 JUMP JUMPDEST SWAP1 POP PUSH0 PUSH8 0xDE0B6B3A7640000 DUP5 DUP4 PUSH2 0xEC SWAP2 SWAP1 PUSH2 0x29B JUMP JUMPDEST PUSH2 0xF6 SWAP2 SWAP1 PUSH2 0x309 JUMP JUMPDEST SWAP1 POP DUP1 SWAP3 POP POP POP SWAP2 SWAP1 POP JUMP JUMPDEST PUSH0 DUP1 PUSH20 0x694AA1769357215DE4FAC081BF1F309ADC325306 SWAP1 POP PUSH0 DUP2 PUSH20 0xFFFFFFFFFFFFFFFFFFFFFFFFFFFFFFFFFFFFFFFF AND PUSH4 0xFEAF968C PUSH1 0x40 MLOAD DUP2 PUSH4 0xFFFFFFFF AND PUSH1 0xE0 SHL DUP2 MSTORE PUSH1 0x4 ADD PUSH1 0xA0 PUSH1 0x40 MLOAD DUP1 DUP4 SUB DUP2 DUP7 GAS STATICCALL ISZERO DUP1 ISZERO PUSH2 0x165 JUMPI RETURNDATASIZE PUSH0 DUP1 RETURNDATACOPY RETURNDATASIZE PUSH0 REVERT JUMPDEST POP POP POP POP PUSH1 0x40 MLOAD RETURNDATASIZE PUSH1 0x1F NOT PUSH1 0x1F DUP3 ADD AND DUP3 ADD DUP1 PUSH1 0x40 MSTORE POP DUP2 ADD SWAP1 PUSH2 0x189 SWAP2 SWAP1 PUSH2 0x3BF JUMP JUMPDEST POP POP POP SWAP2 POP POP DUP1 SWAP3 POP POP POP SWAP1 JUMP JUMPDEST PUSH0 SLOAD PUSH2 0x1A2 CALLVALUE PUSH2 0xCA JUMP JUMPDEST GT PUSH2 0x1E2 JUMPI PUSH1 0x40 MLOAD PUSH32 0x8C379A000000000000000000000000000000000000000000000000000000000 DUP2 MSTORE PUSH1 0x4 ADD PUSH2 0x1D9 SWAP1 PUSH2 0x490 JUMP JUMPDEST PUSH1 0x40 MLOAD DUP1 SWAP2 SUB SWAP1 REVERT JUMPDEST JUMP JUMPDEST PUSH0 DUP1 REVERT JUMPDEST PUSH0 DUP2 SWAP1 POP SWAP2 SWAP1 POP JUMP JUMPDEST PUSH2 0x1FA DUP2 PUSH2 0x1E8 JUMP JUMPDEST DUP2 EQ PUSH2 0x204 JUMPI PUSH0 DUP1 REVERT JUMPDEST POP JUMP JUMPDEST PUSH0 DUP2 CALLDATALOAD SWAP1 POP PUSH2 0x215 DUP2 PUSH2 0x1F1 JUMP JUMPDEST SWAP3 SWAP2 POP POP JUMP JUMPDEST PUSH0 PUSH1 0x20 DUP3 DUP5 SUB SLT ISZERO PUSH2 0x230 JUMPI PUSH2 0x22F PUSH2 0x1E4 JUMP JUMPDEST JUMPDEST PUSH0 PUSH2 0x23D DUP5 DUP3 DUP6 ADD PUSH2 0x207 JUMP JUMPDEST SWAP2 POP POP SWAP3 SWAP2 POP POP JUMP JUMPDEST PUSH2 0x24F DUP2 PUSH2 0x1E8 JUMP JUMPDEST DUP3 MSTORE POP POP JUMP JUMPDEST PUSH0 PUSH1 0x20 DUP3 ADD SWAP1 POP PUSH2 0x268 PUSH0 DUP4 ADD DUP5 PUSH2 0x246 JUMP JUMPDEST SWAP3 SWAP2 POP POP JUMP JUMPDEST PUSH32 0x4E487B7100000000000000000000000000000000000000000000000000000000 PUSH0 MSTORE PUSH1 0x11 PUSH1 0x4 MSTORE PUSH1 0x24 PUSH0 REVERT JUMPDEST PUSH0 PUSH2 0x2A5 DUP3 PUSH2 0x1E8 JUMP JUMPDEST SWAP2 POP PUSH2 0x2B0 DUP4 PUSH2 0x1E8 JUMP JUMPDEST SWAP3 POP DUP3 DUP3 MUL PUSH2 0x2BE DUP2 PUSH2 0x1E8 JUMP JUMPDEST SWAP2 POP DUP3 DUP3 DIV DUP5 EQ DUP4 ISZERO OR PUSH2 0x2D5 JUMPI PUSH2 0x2D4 PUSH2 0x26E JUMP JUMPDEST JUMPDEST POP SWAP3 SWAP2 POP POP JUMP JUMPDEST PUSH32 0x4E487B7100000000000000000000000000000000000000000000000000000000 PUSH0 MSTORE PUSH1 0x12 PUSH1 0x4 MSTORE PUSH1 0x24 PUSH0 REVERT JUMPDEST PUSH0 PUSH2 0x313 DUP3 PUSH2 0x1E8 JUMP JUMPDEST SWAP2 POP PUSH2 0x31E DUP4 PUSH2 0x1E8 JUMP JUMPDEST SWAP3 POP DUP3 PUSH2 0x32E JUMPI PUSH2 0x32D PUSH2 0x2DC JUMP JUMPDEST JUMPDEST DUP3 DUP3 DIV SWAP1 POP SWAP3 SWAP2 POP POP JUMP JUMPDEST PUSH0 PUSH10 0xFFFFFFFFFFFFFFFFFFFF DUP3 AND SWAP1 POP SWAP2 SWAP1 POP JUMP JUMPDEST PUSH2 0x357 DUP2 PUSH2 0x339 JUMP JUMPDEST DUP2 EQ PUSH2 0x361 JUMPI PUSH0 DUP1 REVERT JUMPDEST POP JUMP JUMPDEST PUSH0 DUP2 MLOAD SWAP1 POP PUSH2 0x372 DUP2 PUSH2 0x34E JUMP JUMPDEST SWAP3 SWAP2 POP POP JUMP JUMPDEST PUSH0 DUP2 SWAP1 POP SWAP2 SWAP1 POP JUMP JUMPDEST PUSH2 0x38A DUP2 PUSH2 0x378 JUMP JUMPDEST DUP2 EQ PUSH2 0x394 JUMPI PUSH0 DUP1 REVERT JUMPDEST POP JUMP JUMPDEST PUSH0 DUP2 MLOAD SWAP1 POP PUSH2 0x3A5 DUP2 PUSH2 0x381 JUMP JUMPDEST SWAP3 SWAP2 POP POP JUMP JUMPDEST PUSH0 DUP2 MLOAD SWAP1 POP PUSH2 0x3B9 DUP2 PUSH2 0x1F1 JUMP JUMPDEST SWAP3 SWAP2 POP POP JUMP JUMPDEST PUSH0 DUP1 PUSH0 DUP1 PUSH0 PUSH1 0xA0 DUP7 DUP9 SUB SLT ISZERO PUSH2 0x3D8 JUMPI PUSH2 0x3D7 PUSH2 0x1E4 JUMP JUMPDEST JUMPDEST PUSH0 PUSH2 0x3E5 DUP9 DUP3 DUP10 ADD PUSH2 0x364 JUMP JUMPDEST SWAP6 POP POP PUSH1 0x20 PUSH2 0x3F6 DUP9 DUP3 DUP10 ADD PUSH2 0x397 JUMP JUMPDEST SWAP5 POP POP PUSH1 0x40 PUSH2 0x407 DUP9 DUP3 DUP10 ADD PUSH2 0x3AB JUMP JUMPDEST SWAP4 POP POP PUSH1 0x60 PUSH2 0x418 DUP9 DUP3 DUP10 ADD PUSH2 0x3AB JUMP JUMPDEST SWAP3 POP POP PUSH1 0x80 PUSH2 0x429 DUP9 DUP3 DUP10 ADD PUSH2 0x364 JUMP JUMPDEST SWAP2 POP POP SWAP3 SWAP6 POP SWAP3 SWAP6 SWAP1 SWAP4 POP JUMP JUMPDEST PUSH0 DUP3 DUP3 MSTORE PUSH1 0x20 DUP3 ADD SWAP1 POP SWAP3 SWAP2 POP POP JUMP JUMPDEST PUSH32 0x6174206C65617374203520646F6C6C6172730000000000000000000000000000 PUSH0 DUP3 ADD MSTORE POP JUMP JUMPDEST PUSH0 PUSH2 0x47A PUSH1 0x12 DUP4 PUSH2 0x436 JUMP JUMPDEST SWAP2 POP PUSH2 0x485 DUP3 PUSH2 0x446 JUMP JUMPDEST PUSH1 0x20 DUP3 ADD SWAP1 POP SWAP2 SWAP1 POP JUMP JUMPDEST PUSH0 PUSH1 0x20 DUP3 ADD SWAP1 POP DUP2 DUP2 SUB PUSH0 DUP4 ADD MSTORE PUSH2 0x4A7 DUP2 PUSH2 0x46E JUMP JUMPDEST SWAP1 POP SWAP2 SWAP1 POP JUMP INVALID LOG2 PUSH5 0x6970667358 0x22 SLT KECCAK256 LOG3 ISZERO 0x21 LOG4 0xB4 0xF6 JUMP SWAP12 0xCC 0xCA MSIZE MUL SWAP8 CALLVALUE PUSH24 0xF955F8E448B65EFCB590B04DED2F32C82464736F6C634300 ADDMOD AND STOP CALLER "
				},
				"gasEstimates": {
					"creation": {
						"codeDepositCost": "250400",
						"executionCost": "22397",
						"totalCost": "272797"
					},
					"external": {
						"fund()": "infinite",
						"getConversionRate(uint256)": "infinite",
						"getPrice()": "infinite",
						"withdraw()": "121"
					}
				},
				"methodIdentifiers": {
					"fund()": "b60d4288",
					"getConversionRate(uint256)": "6e5b6b28",
					"getPrice()": "98d5fdca",
					"withdraw()": "3ccfd60b"
				}
			},
			"storageLayout": {
				"storage": [
					{
						"astId": 56,
						"contract": "contracts/FundMe.sol:FundMe",
						"label": "minInUSD",
						"offset": 0,
						"slot": "0",
						"type": "t_uint256"
					}
				],
				"types": {
					"t_uint256": {
						"encoding": "inplace",
						"label": "uint256",
						"numberOfBytes": "32"
					}
				}
			},
			"userdoc": {
				"kind": "user",
				"methods": {},
				"version": 1
			}
		}
	}
}